{
  "contractName": "Land",
  "abi": [
    {
      "inputs": [],
      "stateMutability": "nonpayable",
      "type": "constructor"
    },
    {
      "inputs": [
        {
          "internalType": "address",
          "name": "",
          "type": "address"
        }
      ],
      "name": "InspectorMapping",
      "outputs": [
        {
          "internalType": "uint256",
          "name": "id",
          "type": "uint256"
        },
        {
          "internalType": "address",
          "name": "_addr",
          "type": "address"
        },
        {
          "internalType": "string",
          "name": "name",
          "type": "string"
        },
        {
          "internalType": "uint256",
          "name": "age",
          "type": "uint256"
        },
        {
          "internalType": "string",
          "name": "designation",
          "type": "string"
        },
        {
          "internalType": "string",
          "name": "city",
          "type": "string"
        }
      ],
      "stateMutability": "view",
      "type": "function",
      "constant": true
    },
    {
      "inputs": [
        {
          "internalType": "uint256",
          "name": "",
          "type": "uint256"
        }
      ],
      "name": "LandRequestMapping",
      "outputs": [
        {
          "internalType": "uint256",
          "name": "reqId",
          "type": "uint256"
        },
        {
          "internalType": "address payable",
          "name": "sellerId",
          "type": "address"
        },
        {
          "internalType": "address payable",
          "name": "buyerId",
          "type": "address"
        },
        {
          "internalType": "uint256",
          "name": "landId",
          "type": "uint256"
        },
        {
          "internalType": "enum Land.reqStatus",
          "name": "requestStatus",
          "type": "uint8"
        },
        {
          "internalType": "bool",
          "name": "isPaymentDone",
          "type": "bool"
        }
      ],
      "stateMutability": "view",
      "type": "function",
      "constant": true
    },
    {
      "inputs": [
        {
          "internalType": "address",
          "name": "",
          "type": "address"
        }
      ],
      "name": "UserMapping",
      "outputs": [
        {
          "internalType": "address",
          "name": "id",
          "type": "address"
        },
        {
          "internalType": "string",
          "name": "name",
          "type": "string"
        },
        {
          "internalType": "uint256",
          "name": "age",
          "type": "uint256"
        },
        {
          "internalType": "string",
          "name": "city",
          "type": "string"
        },
        {
          "internalType": "string",
          "name": "aadharNumber",
          "type": "string"
        },
        {
          "internalType": "string",
          "name": "panNumber",
          "type": "string"
        },
        {
          "internalType": "string",
          "name": "document",
          "type": "string"
        },
        {
          "internalType": "string",
          "name": "email",
          "type": "string"
        },
        {
          "internalType": "bool",
          "name": "isUserVerified",
          "type": "bool"
        }
      ],
      "stateMutability": "view",
      "type": "function",
      "constant": true
    },
    {
      "inputs": [],
      "name": "documentId",
      "outputs": [
        {
          "internalType": "uint256",
          "name": "",
          "type": "uint256"
        }
      ],
      "stateMutability": "view",
      "type": "function",
      "constant": true
    },
    {
      "inputs": [
        {
          "internalType": "uint256",
          "name": "",
          "type": "uint256"
        }
      ],
      "name": "lands",
      "outputs": [
        {
          "internalType": "uint256",
          "name": "id",
          "type": "uint256"
        },
        {
          "internalType": "uint256",
          "name": "area",
          "type": "uint256"
        },
        {
          "internalType": "string",
          "name": "landAddress",
          "type": "string"
        },
        {
          "internalType": "uint256",
          "name": "landPrice",
          "type": "uint256"
        },
        {
          "internalType": "string",
          "name": "allLatitudeLongitude",
          "type": "string"
        },
        {
          "internalType": "uint256",
          "name": "propertyPID",
          "type": "uint256"
        },
        {
          "internalType": "string",
          "name": "physicalSurveyNumber",
          "type": "string"
        },
        {
          "internalType": "string",
          "name": "document",
          "type": "string"
        },
        {
          "internalType": "bool",
          "name": "isforSell",
          "type": "bool"
        },
        {
          "internalType": "address payable",
          "name": "ownerAddress",
          "type": "address"
        },
        {
          "internalType": "bool",
          "name": "isLandVerified",
          "type": "bool"
        }
      ],
      "stateMutability": "view",
      "type": "function",
      "constant": true
    },
    {
      "inputs": [],
      "name": "landsCount",
      "outputs": [
        {
          "internalType": "uint256",
          "name": "",
          "type": "uint256"
        }
      ],
      "stateMutability": "view",
      "type": "function",
      "constant": true
    },
    {
      "inputs": [],
      "name": "userCount",
      "outputs": [
        {
          "internalType": "uint256",
          "name": "",
          "type": "uint256"
        }
      ],
      "stateMutability": "view",
      "type": "function",
      "constant": true
    },
    {
      "inputs": [
        {
          "internalType": "address",
          "name": "_addr",
          "type": "address"
        }
      ],
      "name": "isContractOwner",
      "outputs": [
        {
          "internalType": "bool",
          "name": "",
          "type": "bool"
        }
      ],
      "stateMutability": "view",
      "type": "function",
      "constant": true
    },
    {
      "inputs": [
        {
          "internalType": "address",
          "name": "_addr",
          "type": "address"
        }
      ],
      "name": "changeContractOwner",
      "outputs": [],
      "stateMutability": "nonpayable",
      "type": "function"
    },
    {
      "inputs": [
        {
          "internalType": "address",
          "name": "_addr",
          "type": "address"
        },
        {
          "internalType": "string",
          "name": "_name",
          "type": "string"
        },
        {
          "internalType": "uint256",
          "name": "_age",
          "type": "uint256"
        },
        {
          "internalType": "string",
          "name": "_designation",
          "type": "string"
        },
        {
          "internalType": "string",
          "name": "_city",
          "type": "string"
        }
      ],
      "name": "addLandInspector",
      "outputs": [
        {
          "internalType": "bool",
          "name": "",
          "type": "bool"
        }
      ],
      "stateMutability": "nonpayable",
      "type": "function"
    },
    {
      "inputs": [],
      "name": "ReturnAllLandIncpectorList",
      "outputs": [
        {
          "internalType": "address[]",
          "name": "",
          "type": "address[]"
        }
      ],
      "stateMutability": "view",
      "type": "function",
      "constant": true
    },
    {
      "inputs": [
        {
          "internalType": "address",
          "name": "_addr",
          "type": "address"
        }
      ],
      "name": "removeLandInspector",
      "outputs": [],
      "stateMutability": "nonpayable",
      "type": "function"
    },
    {
      "inputs": [
        {
          "internalType": "address",
          "name": "_id",
          "type": "address"
        }
      ],
      "name": "isLandInspector",
      "outputs": [
        {
          "internalType": "bool",
          "name": "",
          "type": "bool"
        }
      ],
      "stateMutability": "view",
      "type": "function",
      "constant": true
    },
    {
      "inputs": [
        {
          "internalType": "address",
          "name": "_addr",
          "type": "address"
        }
      ],
      "name": "isUserRegistered",
      "outputs": [
        {
          "internalType": "bool",
          "name": "",
          "type": "bool"
        }
      ],
      "stateMutability": "view",
      "type": "function",
      "constant": true
    },
    {
      "inputs": [
        {
          "internalType": "string",
          "name": "_name",
          "type": "string"
        },
        {
          "internalType": "uint256",
          "name": "_age",
          "type": "uint256"
        },
        {
          "internalType": "string",
          "name": "_city",
          "type": "string"
        },
        {
          "internalType": "string",
          "name": "_aadharNumber",
          "type": "string"
        },
        {
          "internalType": "string",
          "name": "_panNumber",
          "type": "string"
        },
        {
          "internalType": "string",
          "name": "_document",
          "type": "string"
        },
        {
          "internalType": "string",
          "name": "_email",
          "type": "string"
        }
      ],
      "name": "registerUser",
      "outputs": [],
      "stateMutability": "nonpayable",
      "type": "function"
    },
    {
      "inputs": [
        {
          "internalType": "address",
          "name": "_userId",
          "type": "address"
        }
      ],
      "name": "verifyUser",
      "outputs": [],
      "stateMutability": "nonpayable",
      "type": "function"
    },
    {
      "inputs": [
        {
          "internalType": "address",
          "name": "id",
          "type": "address"
        }
      ],
      "name": "isUserVerified",
      "outputs": [
        {
          "internalType": "bool",
          "name": "",
          "type": "bool"
        }
      ],
      "stateMutability": "view",
      "type": "function",
      "constant": true
    },
    {
      "inputs": [],
      "name": "ReturnAllUserList",
      "outputs": [
        {
          "internalType": "address[]",
          "name": "",
          "type": "address[]"
        }
      ],
      "stateMutability": "view",
      "type": "function",
      "constant": true
    },
    {
      "inputs": [
        {
          "internalType": "uint256",
          "name": "_area",
          "type": "uint256"
        },
        {
          "internalType": "string",
          "name": "_address",
          "type": "string"
        },
        {
          "internalType": "uint256",
          "name": "landPrice",
          "type": "uint256"
        },
        {
          "internalType": "string",
          "name": "_allLatiLongi",
          "type": "string"
        },
        {
          "internalType": "uint256",
          "name": "_propertyPID",
          "type": "uint256"
        },
        {
          "internalType": "string",
          "name": "_surveyNum",
          "type": "string"
        },
        {
          "internalType": "string",
          "name": "_document",
          "type": "string"
        }
      ],
      "name": "addLand",
      "outputs": [],
      "stateMutability": "nonpayable",
      "type": "function"
    },
    {
      "inputs": [],
      "name": "ReturnAllLandList",
      "outputs": [
        {
          "internalType": "uint256[]",
          "name": "",
          "type": "uint256[]"
        }
      ],
      "stateMutability": "view",
      "type": "function",
      "constant": true
    },
    {
      "inputs": [
        {
          "internalType": "uint256",
          "name": "_id",
          "type": "uint256"
        }
      ],
      "name": "verifyLand",
      "outputs": [],
      "stateMutability": "nonpayable",
      "type": "function"
    },
    {
      "inputs": [
        {
          "internalType": "uint256",
          "name": "id",
          "type": "uint256"
        }
      ],
      "name": "isLandVerified",
      "outputs": [
        {
          "internalType": "bool",
          "name": "",
          "type": "bool"
        }
      ],
      "stateMutability": "view",
      "type": "function",
      "constant": true
    },
    {
      "inputs": [
        {
          "internalType": "address",
          "name": "id",
          "type": "address"
        }
      ],
      "name": "myAllLands",
      "outputs": [
        {
          "internalType": "uint256[]",
          "name": "",
          "type": "uint256[]"
        }
      ],
      "stateMutability": "view",
      "type": "function",
      "constant": true
    },
    {
      "inputs": [
        {
          "internalType": "uint256",
          "name": "id",
          "type": "uint256"
        }
      ],
      "name": "makeItforSell",
      "outputs": [],
      "stateMutability": "nonpayable",
      "type": "function"
    },
    {
      "inputs": [
        {
          "internalType": "uint256",
          "name": "_landId",
          "type": "uint256"
        }
      ],
      "name": "requestforBuy",
      "outputs": [],
      "stateMutability": "nonpayable",
      "type": "function"
    },
    {
      "inputs": [],
      "name": "myReceivedLandRequests",
      "outputs": [
        {
          "internalType": "uint256[]",
          "name": "",
          "type": "uint256[]"
        }
      ],
      "stateMutability": "view",
      "type": "function",
      "constant": true
    },
    {
      "inputs": [],
      "name": "mySentLandRequests",
      "outputs": [
        {
          "internalType": "uint256[]",
          "name": "",
          "type": "uint256[]"
        }
      ],
      "stateMutability": "view",
      "type": "function",
      "constant": true
    },
    {
      "inputs": [
        {
          "internalType": "uint256",
          "name": "_requestId",
          "type": "uint256"
        }
      ],
      "name": "acceptRequest",
      "outputs": [],
      "stateMutability": "nonpayable",
      "type": "function"
    },
    {
      "inputs": [
        {
          "internalType": "uint256",
          "name": "_requestId",
          "type": "uint256"
        }
      ],
      "name": "rejectRequest",
      "outputs": [],
      "stateMutability": "nonpayable",
      "type": "function"
    },
    {
      "inputs": [
        {
          "internalType": "uint256",
          "name": "id",
          "type": "uint256"
        }
      ],
      "name": "requesteStatus",
      "outputs": [
        {
          "internalType": "bool",
          "name": "",
          "type": "bool"
        }
      ],
      "stateMutability": "view",
      "type": "function",
      "constant": true
    },
    {
      "inputs": [
        {
          "internalType": "uint256",
          "name": "id",
          "type": "uint256"
        }
      ],
      "name": "landPricef",
      "outputs": [
        {
          "internalType": "uint256",
          "name": "",
          "type": "uint256"
        }
      ],
      "stateMutability": "view",
      "type": "function",
      "constant": true
    },
    {
      "inputs": [
        {
          "internalType": "uint256",
          "name": "_requestId",
          "type": "uint256"
        }
      ],
      "name": "makePayment",
      "outputs": [],
      "stateMutability": "payable",
      "type": "function",
      "payable": true
    },
    {
      "inputs": [],
      "name": "returnPaymentDoneList",
      "outputs": [
        {
          "internalType": "uint256[]",
          "name": "",
          "type": "uint256[]"
        }
      ],
      "stateMutability": "view",
      "type": "function",
      "constant": true
    },
    {
      "inputs": [
        {
          "internalType": "uint256",
          "name": "_requestId",
          "type": "uint256"
        },
        {
          "internalType": "string",
          "name": "documentUrl",
          "type": "string"
        }
      ],
      "name": "transferOwnership",
      "outputs": [
        {
          "internalType": "bool",
          "name": "",
          "type": "bool"
        }
      ],
      "stateMutability": "nonpayable",
      "type": "function"
    },
    {
      "inputs": [
        {
          "internalType": "address payable",
          "name": "_reveiver",
          "type": "address"
        }
      ],
      "name": "makePaymentTestFun",
      "outputs": [],
      "stateMutability": "payable",
      "type": "function",
      "payable": true
    }
  ],
  "bytecode": "0x608060405234801561001057600080fd5b50336000806101000a81548173ffffffffffffffffffffffffffffffffffffffff021916908373ffffffffffffffffffffffffffffffffffffffff1602179055506142d0806100606000396000f3fe6080604052600436106102045760003560e01c80639c32e3b411610118578063d3b368c0116100a0578063e165af871161006f578063e165af87146107bd578063e261f1e5146107fa578063edfbe24714610841578063f9c43bdf1461086a578063fa0245491461089357610204565b8063d3b368c0146106d5578063d61ff68c146106fe578063d8513de414610743578063de1176881461078057610204565b8063c26e11eb116100e7578063c26e11eb146105de578063c6dcdc3714610607578063ccfdc19b14610644578063d196ebf21461066d578063d251839b146106aa57610204565b80639c32e3b414610509578063a846fc8f14610534578063ace417e01461055f578063b10a30ed1461059c57610204565b80634d8131201161019b5780636cbf6cf81161016a5780636cbf6cf81461041f5780637517e00f1461045c57806378f7c83f146104855780639465ab22146104b0578063995a8d96146104ed57610204565b80634d8131201461036d5780635114cb5214610396578063553a998d146103b257806364efa002146103dd57610204565b80632d7788db116101d75780632d7788db146102c75780633ead67b5146102f0578063499701b2146103195780634ba1f0981461034457610204565b806307973ccf14610209578063163f7522146102345780631c9afd0f1461027157806323393d771461029c575b600080fd5b34801561021557600080fd5b5061021e6108d0565b60405161022b91906131c5565b60405180910390f35b34801561024057600080fd5b5061025b60048036038101906102569190613252565b6108d6565b604051610268919061329a565b60405180910390f35b34801561027d57600080fd5b5061028661093d565b60405161029391906131c5565b60405180910390f35b3480156102a857600080fd5b506102b1610943565b6040516102be9190613373565b60405180910390f35b3480156102d357600080fd5b506102ee60048036038101906102e991906133c1565b6109ad565b005b3480156102fc57600080fd5b5061031760048036038101906103129190613252565b610a5d565b005b34801561032557600080fd5b5061032e610b2e565b60405161033b9190613373565b60405180910390f35b34801561035057600080fd5b5061036b600480360381019061036691906133c1565b610bc3565b005b34801561037957600080fd5b50610394600480360381019061038f9190613252565b610c73565b005b6103b060048036038101906103ab91906133c1565b610ce3565b005b3480156103be57600080fd5b506103c7610ee3565b6040516103d491906134ac565b60405180910390f35b3480156103e957600080fd5b5061040460048036038101906103ff9190613252565b610f83565b6040516104169695949392919061356d565b60405180910390f35b34801561042b57600080fd5b50610446600480360381019061044191906133c1565b611177565b604051610453919061329a565b60405180910390f35b34801561046857600080fd5b50610483600480360381019061047e9190613252565b6111a4565b005b34801561049157600080fd5b5061049a611501565b6040516104a791906131c5565b60405180910390f35b3480156104bc57600080fd5b506104d760048036038101906104d291906133c1565b611507565b6040516104e491906131c5565b60405180910390f35b61050760048036038101906105029190613621565b611527565b005b34801561051557600080fd5b5061051e611571565b60405161052b9190613373565b60405180910390f35b34801561054057600080fd5b50610549611606565b6040516105569190613373565b60405180910390f35b34801561056b57600080fd5b5061058660048036038101906105819190613252565b611670565b604051610593919061329a565b60405180910390f35b3480156105a857600080fd5b506105c360048036038101906105be91906133c1565b6116c9565b6040516105d5969594939291906136d4565b60405180910390f35b3480156105ea57600080fd5b50610605600480360381019061060091906133c1565b61175f565b005b34801561061357600080fd5b5061062e6004803603810190610629919061386a565b6117ff565b60405161063b919061329a565b60405180910390f35b34801561065057600080fd5b5061066b60048036038101906106669190613939565b611ab4565b005b34801561067957600080fd5b50610694600480360381019061068f9190613252565b611d18565b6040516106a19190613373565b60405180910390f35b3480156106b657600080fd5b506106bf611daf565b6040516106cc91906134ac565b60405180910390f35b3480156106e157600080fd5b506106fc60048036038101906106f791906133c1565b611e4f565b005b34801561070a57600080fd5b5061072560048036038101906107209190613252565b612144565b60405161073a99989796959493929190613a4b565b60405180910390f35b34801561074f57600080fd5b5061076a600480360381019061076591906133c1565b6124ef565b604051610777919061329a565b60405180910390f35b34801561078c57600080fd5b506107a760048036038101906107a29190613252565b61251c565b6040516107b4919061329a565b60405180910390f35b3480156107c957600080fd5b506107e460048036038101906107df9190613252565b612585565b6040516107f1919061329a565b60405180910390f35b34801561080657600080fd5b50610821600480360381019061081c91906133c1565b6125ec565b6040516108389b9a99989796959493929190613b02565b60405180910390f35b34801561084d57600080fd5b5061086860048036038101906108639190613bc9565b6128a0565b005b34801561087657600080fd5b50610891600480360381019061088c91906133c1565b612bca565b005b34801561089f57600080fd5b506108ba60048036038101906108b59190613d13565b612c0e565b6040516108c7919061329a565b60405180910390f35b60025481565b6000600c60008373ffffffffffffffffffffffffffffffffffffffff1673ffffffffffffffffffffffffffffffffffffffff16815260200190815260200160002060009054906101000a900460ff16156109335760019050610938565b600090505b919050565b60035481565b606060126000600181526020019081526020016000208054806020026020016040519081016040528092919081815260200182805480156109a357602002820191906000526020600020905b81548152602001906001019080831161098f575b5050505050905090565b3373ffffffffffffffffffffffffffffffffffffffff16600f600083815260200190815260200160002060010160009054906101000a900473ffffffffffffffffffffffffffffffffffffffff1673ffffffffffffffffffffffffffffffffffffffff1614610a1b57600080fd5b6002600f600083815260200190815260200160002060040160006101000a81548160ff02191690836004811115610a5557610a5461365d565b5b021790555050565b60008054906101000a900473ffffffffffffffffffffffffffffffffffffffff1673ffffffffffffffffffffffffffffffffffffffff163373ffffffffffffffffffffffffffffffffffffffff1614610aeb576040517f08c379a0000000000000000000000000000000000000000000000000000000008152600401610ae290613dbb565b60405180910390fd5b806000806101000a81548173ffffffffffffffffffffffffffffffffffffffff021916908373ffffffffffffffffffffffffffffffffffffffff16021790555050565b6060601060003373ffffffffffffffffffffffffffffffffffffffff1673ffffffffffffffffffffffffffffffffffffffff168152602001908152602001600020805480602002602001604051908101604052809291908181526020018280548015610bb957602002820191906000526020600020905b815481526020019060010190808311610ba5575b5050505050905090565b3373ffffffffffffffffffffffffffffffffffffffff16600f600083815260200190815260200160002060010160009054906101000a900473ffffffffffffffffffffffffffffffffffffffff1673ffffffffffffffffffffffffffffffffffffffff1614610c3157600080fd5b6001600f600083815260200190815260200160002060040160006101000a81548160ff02191690836004811115610c6b57610c6a61365d565b5b021790555050565b610c7c33612585565b610c8557600080fd5b6001600960008373ffffffffffffffffffffffffffffffffffffffff1673ffffffffffffffffffffffffffffffffffffffff16815260200190815260200160002060080160006101000a81548160ff02191690831515021790555050565b3373ffffffffffffffffffffffffffffffffffffffff16600f600083815260200190815260200160002060020160009054906101000a900473ffffffffffffffffffffffffffffffffffffffff1673ffffffffffffffffffffffffffffffffffffffff16148015610d9b575060016004811115610d6357610d6261365d565b5b600f600083815260200190815260200160002060040160009054906101000a900460ff166004811115610d9957610d9861365d565b5b145b610da457600080fd5b6003600f600083815260200190815260200160002060040160006101000a81548160ff02191690836004811115610dde57610ddd61365d565b5b0217905550600e6000600f600084815260200190815260200160002060030154815260200190815260200160002060080160019054906101000a900473ffffffffffffffffffffffffffffffffffffffff1673ffffffffffffffffffffffffffffffffffffffff166108fc349081150290604051600060405180830381858888f19350505050158015610e75573d6000803e3d6000fd5b506001600f600083815260200190815260200160002060040160016101000a81548160ff021916908315150217905550601360006001815260200190815260200160002081908060018154018082558091505060019003906000526020600020016000909190919091505550565b6060600b600060018152602001908152602001600020805480602002602001604051908101604052809291908181526020018280548015610f7957602002820191906000526020600020905b8160009054906101000a900473ffffffffffffffffffffffffffffffffffffffff1673ffffffffffffffffffffffffffffffffffffffff1681526020019060010190808311610f2f575b5050505050905090565b60066020528060005260406000206000915090508060000154908060010160009054906101000a900473ffffffffffffffffffffffffffffffffffffffff1690806002018054610fd290613e0a565b80601f0160208091040260200160405190810160405280929190818152602001828054610ffe90613e0a565b801561104b5780601f106110205761010080835404028352916020019161104b565b820191906000526020600020905b81548152906001019060200180831161102e57829003601f168201915b50505050509080600301549080600401805461106690613e0a565b80601f016020809104026020016040519081016040528092919081815260200182805461109290613e0a565b80156110df5780601f106110b4576101008083540402835291602001916110df565b820191906000526020600020905b8154815290600101906020018083116110c257829003601f168201915b5050505050908060050180546110f490613e0a565b80601f016020809104026020016040519081016040528092919081815260200182805461112090613e0a565b801561116d5780601f106111425761010080835404028352916020019161116d565b820191906000526020600020905b81548152906001019060200180831161115057829003601f168201915b5050505050905086565b6000600e600083815260200190815260200160002060080160159054906101000a900460ff169050919050565b60008054906101000a900473ffffffffffffffffffffffffffffffffffffffff1673ffffffffffffffffffffffffffffffffffffffff163373ffffffffffffffffffffffffffffffffffffffff1614611232576040517f08c379a000000000000000000000000000000000000000000000000000000000815260040161122990613e87565b60405180910390fd5b600860008273ffffffffffffffffffffffffffffffffffffffff1673ffffffffffffffffffffffffffffffffffffffff16815260200190815260200160002060009054906101000a900460ff166112be576040517f08c379a00000000000000000000000000000000000000000000000000000000081526004016112b590613ef3565b60405180910390fd5b6000600860008373ffffffffffffffffffffffffffffffffffffffff1673ffffffffffffffffffffffffffffffffffffffff16815260200190815260200160002060006101000a81548160ff0219169083151502179055506000600760006001815260200190815260200160002080549050905060005b818110156114fc578273ffffffffffffffffffffffffffffffffffffffff166007600060018152602001908152602001600020828154811061137a57611379613f13565b5b9060005260206000200160009054906101000a900473ffffffffffffffffffffffffffffffffffffffff1673ffffffffffffffffffffffffffffffffffffffff16036114e95760076000600181526020019081526020016000206001836113e19190613f71565b815481106113f2576113f1613f13565b5b9060005260206000200160009054906101000a900473ffffffffffffffffffffffffffffffffffffffff166007600060018152602001908152602001600020828154811061144357611442613f13565b5b9060005260206000200160006101000a81548173ffffffffffffffffffffffffffffffffffffffff021916908373ffffffffffffffffffffffffffffffffffffffff16021790555060076000600181526020019081526020016000208054806114af576114ae613fa5565b5b6001900381819060005260206000200160006101000a81549073ffffffffffffffffffffffffffffffffffffffff021916905590556114fc565b80806114f490613fd4565b915050611335565b505050565b60045481565b6000600e6000838152602001908152602001600020600301549050919050565b8073ffffffffffffffffffffffffffffffffffffffff166108fc349081150290604051600060405180830381858888f1935050505015801561156d573d6000803e3d6000fd5b5050565b6060601160003373ffffffffffffffffffffffffffffffffffffffff1673ffffffffffffffffffffffffffffffffffffffff1681526020019081526020016000208054806020026020016040519081016040528092919081815260200182805480156115fc57602002820191906000526020600020905b8154815260200190600101908083116115e8575b5050505050905090565b6060601360006001815260200190815260200160002080548060200260200160405190810160405280929190818152602001828054801561166657602002820191906000526020600020905b815481526020019060010190808311611652575b5050505050905090565b6000600960008373ffffffffffffffffffffffffffffffffffffffff1673ffffffffffffffffffffffffffffffffffffffff16815260200190815260200160002060080160009054906101000a900460ff169050919050565b600f6020528060005260406000206000915090508060000154908060010160009054906101000a900473ffffffffffffffffffffffffffffffffffffffff16908060020160009054906101000a900473ffffffffffffffffffffffffffffffffffffffff16908060030154908060040160009054906101000a900460ff16908060040160019054906101000a900460ff16905086565b3373ffffffffffffffffffffffffffffffffffffffff16600e600083815260200190815260200160002060080160019054906101000a900473ffffffffffffffffffffffffffffffffffffffff1673ffffffffffffffffffffffffffffffffffffffff16146117cd57600080fd5b6001600e600083815260200190815260200160002060080160006101000a81548160ff02191690831515021790555050565b60003373ffffffffffffffffffffffffffffffffffffffff1660008054906101000a900473ffffffffffffffffffffffffffffffffffffffff1673ffffffffffffffffffffffffffffffffffffffff161461185d5760009050611aab565b3373ffffffffffffffffffffffffffffffffffffffff1660008054906101000a900473ffffffffffffffffffffffffffffffffffffffff1673ffffffffffffffffffffffffffffffffffffffff16146118b557600080fd5b6001600860008873ffffffffffffffffffffffffffffffffffffffff1673ffffffffffffffffffffffffffffffffffffffff16815260200190815260200160002060006101000a81548160ff0219169083151502179055506007600060018152602001908152602001600020869080600181540180825580915050600190039060005260206000200160009091909190916101000a81548173ffffffffffffffffffffffffffffffffffffffff021916908373ffffffffffffffffffffffffffffffffffffffff1602179055506040518060c0016040528060015481526020018773ffffffffffffffffffffffffffffffffffffffff16815260200186815260200185815260200184815260200183815250600660008873ffffffffffffffffffffffffffffffffffffffff1673ffffffffffffffffffffffffffffffffffffffff1681526020019081526020016000206000820151816000015560208201518160010160006101000a81548173ffffffffffffffffffffffffffffffffffffffff021916908373ffffffffffffffffffffffffffffffffffffffff1602179055506040820151816002019081611a6c91906141c8565b50606082015181600301556080820151816004019081611a8c91906141c8565b5060a0820151816005019081611aa291906141c8565b50905050600190505b95945050505050565b611abd33611670565b611ac657600080fd5b60036000815480929190611ad990613fd4565b919050555060405180610160016040528060035481526020018881526020018781526020018681526020018581526020018481526020018381526020018281526020016000151581526020013373ffffffffffffffffffffffffffffffffffffffff16815260200160001515815250600e6000600354815260200190815260200160002060008201518160000155602082015181600101556040820151816002019081611b8691906141c8565b50606082015181600301556080820151816004019081611ba691906141c8565b5060a0820151816005015560c0820151816006019081611bc691906141c8565b5060e0820151816007019081611bdc91906141c8565b506101008201518160080160006101000a81548160ff0219169083151502179055506101208201518160080160016101000a81548173ffffffffffffffffffffffffffffffffffffffff021916908373ffffffffffffffffffffffffffffffffffffffff1602179055506101408201518160080160156101000a81548160ff021916908315150217905550905050600d60003373ffffffffffffffffffffffffffffffffffffffff1673ffffffffffffffffffffffffffffffffffffffff16815260200190815260200160002060035490806001815401808255809150506001900390600052602060002001600090919091909150556012600060018152602001908152602001600020600354908060018154018082558091505060019003906000526020600020016000909190919091505550505050505050565b6060600d60008373ffffffffffffffffffffffffffffffffffffffff1673ffffffffffffffffffffffffffffffffffffffff168152602001908152602001600020805480602002602001604051908101604052809291908181526020018280548015611da357602002820191906000526020600020905b815481526020019060010190808311611d8f575b50505050509050919050565b60606007600060018152602001908152602001600020805480602002602001604051908101604052809291908181526020018280548015611e4557602002820191906000526020600020905b8160009054906101000a900473ffffffffffffffffffffffffffffffffffffffff1673ffffffffffffffffffffffffffffffffffffffff1681526020019060010190808311611dfb575b5050505050905090565b611e5833611670565b8015611e695750611e6881611177565b5b611e7257600080fd5b60056000815480929190611e8590613fd4565b91905055506040518060c001604052806005548152602001600e600084815260200190815260200160002060080160019054906101000a900473ffffffffffffffffffffffffffffffffffffffff1673ffffffffffffffffffffffffffffffffffffffff1681526020013373ffffffffffffffffffffffffffffffffffffffff16815260200182815260200160006004811115611f2557611f2461365d565b5b815260200160001515815250600f600060055481526020019081526020016000206000820151816000015560208201518160010160006101000a81548173ffffffffffffffffffffffffffffffffffffffff021916908373ffffffffffffffffffffffffffffffffffffffff16021790555060408201518160020160006101000a81548173ffffffffffffffffffffffffffffffffffffffff021916908373ffffffffffffffffffffffffffffffffffffffff1602179055506060820151816003015560808201518160040160006101000a81548160ff021916908360048111156120135761201261365d565b5b021790555060a08201518160040160016101000a81548160ff02191690831515021790555090505060106000600e600084815260200190815260200160002060080160019054906101000a900473ffffffffffffffffffffffffffffffffffffffff1673ffffffffffffffffffffffffffffffffffffffff1673ffffffffffffffffffffffffffffffffffffffff1681526020019081526020016000206005549080600181540180825580915050600190039060005260206000200160009091909190915055601160003373ffffffffffffffffffffffffffffffffffffffff1673ffffffffffffffffffffffffffffffffffffffff168152602001908152602001600020600554908060018154018082558091505060019003906000526020600020016000909190919091505550565b60096020528060005260406000206000915090508060000160009054906101000a900473ffffffffffffffffffffffffffffffffffffffff169080600101805461218d90613e0a565b80601f01602080910402602001604051908101604052809291908181526020018280546121b990613e0a565b80156122065780601f106121db57610100808354040283529160200191612206565b820191906000526020600020905b8154815290600101906020018083116121e957829003601f168201915b50505050509080600201549080600301805461222190613e0a565b80601f016020809104026020016040519081016040528092919081815260200182805461224d90613e0a565b801561229a5780601f1061226f5761010080835404028352916020019161229a565b820191906000526020600020905b81548152906001019060200180831161227d57829003601f168201915b5050505050908060040180546122af90613e0a565b80601f01602080910402602001604051908101604052809291908181526020018280546122db90613e0a565b80156123285780601f106122fd57610100808354040283529160200191612328565b820191906000526020600020905b81548152906001019060200180831161230b57829003601f168201915b50505050509080600501805461233d90613e0a565b80601f016020809104026020016040519081016040528092919081815260200182805461236990613e0a565b80156123b65780601f1061238b576101008083540402835291602001916123b6565b820191906000526020600020905b81548152906001019060200180831161239957829003601f168201915b5050505050908060060180546123cb90613e0a565b80601f01602080910402602001604051908101604052809291908181526020018280546123f790613e0a565b80156124445780601f1061241957610100808354040283529160200191612444565b820191906000526020600020905b81548152906001019060200180831161242757829003601f168201915b50505050509080600701805461245990613e0a565b80601f016020809104026020016040519081016040528092919081815260200182805461248590613e0a565b80156124d25780601f106124a7576101008083540402835291602001916124d2565b820191906000526020600020905b8154815290600101906020018083116124b557829003601f168201915b5050505050908060080160009054906101000a900460ff16905089565b6000600f600083815260200190815260200160002060040160019054906101000a900460ff169050919050565b60008060009054906101000a900473ffffffffffffffffffffffffffffffffffffffff1673ffffffffffffffffffffffffffffffffffffffff168273ffffffffffffffffffffffffffffffffffffffff160361257b5760019050612580565b600090505b919050565b6000600860008373ffffffffffffffffffffffffffffffffffffffff1673ffffffffffffffffffffffffffffffffffffffff16815260200190815260200160002060009054906101000a900460ff16156125e257600190506125e7565b600090505b919050565b600e60205280600052604060002060009150905080600001549080600101549080600201805461261b90613e0a565b80601f016020809104026020016040519081016040528092919081815260200182805461264790613e0a565b80156126945780601f1061266957610100808354040283529160200191612694565b820191906000526020600020905b81548152906001019060200180831161267757829003601f168201915b5050505050908060030154908060040180546126af90613e0a565b80601f01602080910402602001604051908101604052809291908181526020018280546126db90613e0a565b80156127285780601f106126fd57610100808354040283529160200191612728565b820191906000526020600020905b81548152906001019060200180831161270b57829003601f168201915b50505050509080600501549080600601805461274390613e0a565b80601f016020809104026020016040519081016040528092919081815260200182805461276f90613e0a565b80156127bc5780601f10612791576101008083540402835291602001916127bc565b820191906000526020600020905b81548152906001019060200180831161279f57829003601f168201915b5050505050908060070180546127d190613e0a565b80601f01602080910402602001604051908101604052809291908181526020018280546127fd90613e0a565b801561284a5780601f1061281f5761010080835404028352916020019161284a565b820191906000526020600020905b81548152906001019060200180831161282d57829003601f168201915b5050505050908060080160009054906101000a900460ff16908060080160019054906101000a900473ffffffffffffffffffffffffffffffffffffffff16908060080160159054906101000a900460ff1690508b565b600c60003373ffffffffffffffffffffffffffffffffffffffff1673ffffffffffffffffffffffffffffffffffffffff16815260200190815260200160002060009054906101000a900460ff16156128f757600080fd5b6001600c60003373ffffffffffffffffffffffffffffffffffffffff1673ffffffffffffffffffffffffffffffffffffffff16815260200190815260200160002060006101000a81548160ff0219169083151502179055506002600081548092919061296290613fd4565b9190505550600b600060018152602001908152602001600020339080600181540180825580915050600190039060005260206000200160009091909190916101000a81548173ffffffffffffffffffffffffffffffffffffffff021916908373ffffffffffffffffffffffffffffffffffffffff16021790555033600a6000600254815260200190815260200160002060006101000a81548173ffffffffffffffffffffffffffffffffffffffff021916908373ffffffffffffffffffffffffffffffffffffffff1602179055506040518061012001604052803373ffffffffffffffffffffffffffffffffffffffff16815260200188815260200187815260200186815260200185815260200184815260200183815260200182815260200160001515815250600960003373ffffffffffffffffffffffffffffffffffffffff1673ffffffffffffffffffffffffffffffffffffffff16815260200190815260200160002060008201518160000160006101000a81548173ffffffffffffffffffffffffffffffffffffffff021916908373ffffffffffffffffffffffffffffffffffffffff1602179055506020820151816001019081612b2491906141c8565b50604082015181600201556060820151816003019081612b4491906141c8565b506080820151816004019081612b5a91906141c8565b5060a0820151816005019081612b7091906141c8565b5060c0820151816006019081612b8691906141c8565b5060e0820151816007019081612b9c91906141c8565b506101008201518160080160006101000a81548160ff02191690831515021790555090505050505050505050565b612bd333612585565b612bdc57600080fd5b6001600e600083815260200190815260200160002060080160156101000a81548160ff02191690831515021790555050565b6000612c1933612585565b612c2257600080fd5b60001515600f600085815260200190815260200160002060040160019054906101000a900460ff16151503612c5a57600090506131a6565b60046000815480929190612c6d90613fd4565b91905055506004600f600085815260200190815260200160002060040160006101000a81548160ff02191690836004811115612cac57612cab61365d565b5b0217905550600d6000600f600086815260200190815260200160002060020160009054906101000a900473ffffffffffffffffffffffffffffffffffffffff1673ffffffffffffffffffffffffffffffffffffffff1673ffffffffffffffffffffffffffffffffffffffff168152602001908152602001600020600f60008581526020019081526020016000206003015490806001815401808255809150506001900390600052602060002001600090919091909150556000600d6000600f600087815260200190815260200160002060010160009054906101000a900473ffffffffffffffffffffffffffffffffffffffff1673ffffffffffffffffffffffffffffffffffffffff1673ffffffffffffffffffffffffffffffffffffffff16815260200190815260200160002080549050905060005b8181101561307f57600f600086815260200190815260200160002060030154600d6000600f600089815260200190815260200160002060010160009054906101000a900473ffffffffffffffffffffffffffffffffffffffff1673ffffffffffffffffffffffffffffffffffffffff1673ffffffffffffffffffffffffffffffffffffffff1681526020019081526020016000208281548110612e8957612e88613f13565b5b90600052602060002001540361306c57600d6000600f600088815260200190815260200160002060010160009054906101000a900473ffffffffffffffffffffffffffffffffffffffff1673ffffffffffffffffffffffffffffffffffffffff1673ffffffffffffffffffffffffffffffffffffffff168152602001908152602001600020600183612f1b9190613f71565b81548110612f2c57612f2b613f13565b5b9060005260206000200154600d6000600f600089815260200190815260200160002060010160009054906101000a900473ffffffffffffffffffffffffffffffffffffffff1673ffffffffffffffffffffffffffffffffffffffff1673ffffffffffffffffffffffffffffffffffffffff1681526020019081526020016000208281548110612fbe57612fbd613f13565b5b9060005260206000200181905550600d6000600f600088815260200190815260200160002060010160009054906101000a900473ffffffffffffffffffffffffffffffffffffffff1673ffffffffffffffffffffffffffffffffffffffff1673ffffffffffffffffffffffffffffffffffffffff16815260200190815260200160002080548061305157613050613fa5565b5b6001900381819060005260206000200160009055905561307f565b808061307790613fd4565b915050612de3565b5082600e6000600f600088815260200190815260200160002060030154815260200190815260200160002060070190816130b991906141c8565b506000600e6000600f600088815260200190815260200160002060030154815260200190815260200160002060080160006101000a81548160ff021916908315150217905550600f600085815260200190815260200160002060020160009054906101000a900473ffffffffffffffffffffffffffffffffffffffff16600e6000600f600088815260200190815260200160002060030154815260200190815260200160002060080160016101000a81548173ffffffffffffffffffffffffffffffffffffffff021916908373ffffffffffffffffffffffffffffffffffffffff16021790555060019150505b92915050565b6000819050919050565b6131bf816131ac565b82525050565b60006020820190506131da60008301846131b6565b92915050565b6000604051905090565b600080fd5b600080fd5b600073ffffffffffffffffffffffffffffffffffffffff82169050919050565b600061321f826131f4565b9050919050565b61322f81613214565b811461323a57600080fd5b50565b60008135905061324c81613226565b92915050565b600060208284031215613268576132676131ea565b5b60006132768482850161323d565b91505092915050565b60008115159050919050565b6132948161327f565b82525050565b60006020820190506132af600083018461328b565b92915050565b600081519050919050565b600082825260208201905092915050565b6000819050602082019050919050565b6132ea816131ac565b82525050565b60006132fc83836132e1565b60208301905092915050565b6000602082019050919050565b6000613320826132b5565b61332a81856132c0565b9350613335836132d1565b8060005b8381101561336657815161334d88826132f0565b975061335883613308565b925050600181019050613339565b5085935050505092915050565b6000602082019050818103600083015261338d8184613315565b905092915050565b61339e816131ac565b81146133a957600080fd5b50565b6000813590506133bb81613395565b92915050565b6000602082840312156133d7576133d66131ea565b5b60006133e5848285016133ac565b91505092915050565b600081519050919050565b600082825260208201905092915050565b6000819050602082019050919050565b61342381613214565b82525050565b6000613435838361341a565b60208301905092915050565b6000602082019050919050565b6000613459826133ee565b61346381856133f9565b935061346e8361340a565b8060005b8381101561349f5781516134868882613429565b975061349183613441565b925050600181019050613472565b5085935050505092915050565b600060208201905081810360008301526134c6818461344e565b905092915050565b6134d781613214565b82525050565b600081519050919050565b600082825260208201905092915050565b60005b838110156135175780820151818401526020810190506134fc565b60008484015250505050565b6000601f19601f8301169050919050565b600061353f826134dd565b61354981856134e8565b93506135598185602086016134f9565b61356281613523565b840191505092915050565b600060c08201905061358260008301896131b6565b61358f60208301886134ce565b81810360408301526135a18187613534565b90506135b060608301866131b6565b81810360808301526135c28185613534565b905081810360a08301526135d68184613534565b9050979650505050505050565b60006135ee826131f4565b9050919050565b6135fe816135e3565b811461360957600080fd5b50565b60008135905061361b816135f5565b92915050565b600060208284031215613637576136366131ea565b5b60006136458482850161360c565b91505092915050565b613657816135e3565b82525050565b7f4e487b7100000000000000000000000000000000000000000000000000000000600052602160045260246000fd5b6005811061369d5761369c61365d565b5b50565b60008190506136ae8261368c565b919050565b60006136be826136a0565b9050919050565b6136ce816136b3565b82525050565b600060c0820190506136e960008301896131b6565b6136f6602083018861364e565b613703604083018761364e565b61371060608301866131b6565b61371d60808301856136c5565b61372a60a083018461328b565b979650505050505050565b600080fd5b600080fd5b7f4e487b7100000000000000000000000000000000000000000000000000000000600052604160045260246000fd5b61377782613523565b810181811067ffffffffffffffff821117156137965761379561373f565b5b80604052505050565b60006137a96131e0565b90506137b5828261376e565b919050565b600067ffffffffffffffff8211156137d5576137d461373f565b5b6137de82613523565b9050602081019050919050565b82818337600083830152505050565b600061380d613808846137ba565b61379f565b9050828152602081018484840111156138295761382861373a565b5b6138348482856137eb565b509392505050565b600082601f83011261385157613850613735565b5b81356138618482602086016137fa565b91505092915050565b600080600080600060a08688031215613886576138856131ea565b5b60006138948882890161323d565b955050602086013567ffffffffffffffff8111156138b5576138b46131ef565b5b6138c18882890161383c565b94505060406138d2888289016133ac565b935050606086013567ffffffffffffffff8111156138f3576138f26131ef565b5b6138ff8882890161383c565b925050608086013567ffffffffffffffff8111156139205761391f6131ef565b5b61392c8882890161383c565b9150509295509295909350565b600080600080600080600060e0888a031215613958576139576131ea565b5b60006139668a828b016133ac565b975050602088013567ffffffffffffffff811115613987576139866131ef565b5b6139938a828b0161383c565b96505060406139a48a828b016133ac565b955050606088013567ffffffffffffffff8111156139c5576139c46131ef565b5b6139d18a828b0161383c565b94505060806139e28a828b016133ac565b93505060a088013567ffffffffffffffff811115613a0357613a026131ef565b5b613a0f8a828b0161383c565b92505060c088013567ffffffffffffffff811115613a3057613a2f6131ef565b5b613a3c8a828b0161383c565b91505092959891949750929550565b600061012082019050613a61600083018c6134ce565b8181036020830152613a73818b613534565b9050613a82604083018a6131b6565b8181036060830152613a948189613534565b90508181036080830152613aa88188613534565b905081810360a0830152613abc8187613534565b905081810360c0830152613ad08186613534565b905081810360e0830152613ae48185613534565b9050613af461010083018461328b565b9a9950505050505050505050565b600061016082019050613b18600083018e6131b6565b613b25602083018d6131b6565b8181036040830152613b37818c613534565b9050613b46606083018b6131b6565b8181036080830152613b58818a613534565b9050613b6760a08301896131b6565b81810360c0830152613b798188613534565b905081810360e0830152613b8d8187613534565b9050613b9d61010083018661328b565b613bab61012083018561364e565b613bb961014083018461328b565b9c9b505050505050505050505050565b600080600080600080600060e0888a031215613be857613be76131ea565b5b600088013567ffffffffffffffff811115613c0657613c056131ef565b5b613c128a828b0161383c565b9750506020613c238a828b016133ac565b965050604088013567ffffffffffffffff811115613c4457613c436131ef565b5b613c508a828b0161383c565b955050606088013567ffffffffffffffff811115613c7157613c706131ef565b5b613c7d8a828b0161383c565b945050608088013567ffffffffffffffff811115613c9e57613c9d6131ef565b5b613caa8a828b0161383c565b93505060a088013567ffffffffffffffff811115613ccb57613cca6131ef565b5b613cd78a828b0161383c565b92505060c088013567ffffffffffffffff811115613cf857613cf76131ef565b5b613d048a828b0161383c565b91505092959891949750929550565b60008060408385031215613d2a57613d296131ea565b5b6000613d38858286016133ac565b925050602083013567ffffffffffffffff811115613d5957613d586131ef565b5b613d658582860161383c565b9150509250929050565b7f796f7520617265206e6f7420636f6e74726163744f776e657200000000000000600082015250565b6000613da56019836134e8565b9150613db082613d6f565b602082019050919050565b60006020820190508181036000830152613dd481613d98565b9050919050565b7f4e487b7100000000000000000000000000000000000000000000000000000000600052602260045260246000fd5b60006002820490506001821680613e2257607f821691505b602082108103613e3557613e34613ddb565b5b50919050565b7f596f7520617265206e6f7420636f6e74726163744f776e657200000000000000600082015250565b6000613e716019836134e8565b9150613e7c82613e3b565b602082019050919050565b60006020820190508181036000830152613ea081613e64565b9050919050565b7f4c616e6420496e73706563746f72206e6f7420666f756e640000000000000000600082015250565b6000613edd6018836134e8565b9150613ee882613ea7565b602082019050919050565b60006020820190508181036000830152613f0c81613ed0565b9050919050565b7f4e487b7100000000000000000000000000000000000000000000000000000000600052603260045260246000fd5b7f4e487b7100000000000000000000000000000000000000000000000000000000600052601160045260246000fd5b6000613f7c826131ac565b9150613f87836131ac565b9250828203905081811115613f9f57613f9e613f42565b5b92915050565b7f4e487b7100000000000000000000000000000000000000000000000000000000600052603160045260246000fd5b6000613fdf826131ac565b91507fffffffffffffffffffffffffffffffffffffffffffffffffffffffffffffffff820361401157614010613f42565b5b600182019050919050565b60008190508160005260206000209050919050565b60006020601f8301049050919050565b600082821b905092915050565b60006008830261407e7fffffffffffffffffffffffffffffffffffffffffffffffffffffffffffffffff82614041565b6140888683614041565b95508019841693508086168417925050509392505050565b6000819050919050565b60006140c56140c06140bb846131ac565b6140a0565b6131ac565b9050919050565b6000819050919050565b6140df836140aa565b6140f36140eb826140cc565b84845461404e565b825550505050565b600090565b6141086140fb565b6141138184846140d6565b505050565b5b818110156141375761412c600082614100565b600181019050614119565b5050565b601f82111561417c5761414d8161401c565b61415684614031565b81016020851015614165578190505b61417961417185614031565b830182614118565b50505b505050565b600082821c905092915050565b600061419f60001984600802614181565b1980831691505092915050565b60006141b8838361418e565b9150826002028217905092915050565b6141d1826134dd565b67ffffffffffffffff8111156141ea576141e961373f565b5b6141f48254613e0a565b6141ff82828561413b565b600060209050601f8311600181146142325760008415614220578287015190505b61422a85826141ac565b865550614292565b601f1984166142408661401c565b60005b8281101561426857848901518255600182019150602085019450602081019050614243565b868310156142855784890151614281601f89168261418e565b8355505b6001600288020188555050505b50505050505056fea2646970667358221220ab45f4a36962db8441547e5b7cca03b4ec0dd6bb5167a39443f35d463117caf464736f6c63430008130033",
  "immutableReferences": {},
  "source": "//SPDX-License-Identifier: MIT\npragma solidity ^0.8.0;\n\ncontract Land {\n    address contractOwner;\n\n    constructor() {\n        contractOwner = msg.sender;\n    }\n\n    struct Landreg {\n        uint id;\n        uint area;\n        string landAddress;\n        uint landPrice;\n        string allLatitudeLongitude;\n        uint propertyPID;\n        string physicalSurveyNumber;\n        string document;\n        bool isforSell;\n        address payable ownerAddress;\n        bool isLandVerified;\n    }\n\n    struct User {\n        address id;\n        string name;\n        uint age;\n        string city;\n        string aadharNumber;\n        string panNumber;\n        string document;\n        string email;\n        bool isUserVerified;\n    }\n\n    struct LandInspector {\n        uint id;\n        address _addr;\n        string name;\n        uint age;\n        string designation;\n        string city;\n    }\n\n    struct LandRequest {\n        uint reqId;\n        address payable sellerId;\n        address payable buyerId;\n        uint landId;\n        reqStatus requestStatus;\n        bool isPaymentDone;\n    }\n    enum reqStatus {\n        requested,\n        accepted,\n        rejected,\n        paymentdone,\n        commpleted\n    }\n\n    uint inspectorsCount;\n    uint public userCount;\n    uint public landsCount;\n    uint public documentId;\n    uint requestCount;\n\n    mapping(address => LandInspector) public InspectorMapping;\n    mapping(uint => address[]) allLandInspectorList;\n    mapping(address => bool) RegisteredInspectorMapping;\n    mapping(address => User) public UserMapping;\n    mapping(uint => address) AllUsers;\n    mapping(uint => address[]) allUsersList;\n    mapping(address => bool) RegisteredUserMapping;\n    mapping(address => uint[]) MyLands;\n    mapping(uint => Landreg) public lands;\n    mapping(uint => LandRequest) public LandRequestMapping;\n    mapping(address => uint[]) MyReceivedLandRequest;\n    mapping(address => uint[]) MySentLandRequest;\n    mapping(uint => uint[]) allLandList;\n    mapping(uint => uint[]) paymentDoneList;\n\n    function isContractOwner(address _addr) public view returns (bool) {\n        if (_addr == contractOwner) return true;\n        else return false;\n    }\n\n    function changeContractOwner(address _addr) public {\n        require(msg.sender == contractOwner, \"you are not contractOwner\");\n\n        contractOwner = _addr;\n    }\n\n    //-----------------------------------------------LandInspector-----------------------------------------------\n\n    function addLandInspector(\n        address _addr,\n        string memory _name,\n        uint _age,\n        string memory _designation,\n        string memory _city\n    ) public returns (bool) {\n        if (contractOwner != msg.sender) return false;\n        require(contractOwner == msg.sender);\n        RegisteredInspectorMapping[_addr] = true;\n        allLandInspectorList[1].push(_addr);\n        InspectorMapping[_addr] = LandInspector(\n            inspectorsCount,\n            _addr,\n            _name,\n            _age,\n            _designation,\n            _city\n        );\n        return true;\n    }\n\n    function ReturnAllLandIncpectorList()\n        public\n        view\n        returns (address[] memory)\n    {\n        return allLandInspectorList[1];\n    }\n\n    function removeLandInspector(address _addr) public {\n        require(msg.sender == contractOwner, \"You are not contractOwner\");\n        require(RegisteredInspectorMapping[_addr], \"Land Inspector not found\");\n        RegisteredInspectorMapping[_addr] = false;\n\n        uint len = allLandInspectorList[1].length;\n        for (uint i = 0; i < len; i++) {\n            if (allLandInspectorList[1][i] == _addr) {\n                allLandInspectorList[1][i] = allLandInspectorList[1][len - 1];\n                allLandInspectorList[1].pop();\n                break;\n            }\n        }\n    }\n\n    function isLandInspector(address _id) public view returns (bool) {\n        if (RegisteredInspectorMapping[_id]) {\n            return true;\n        } else {\n            return false;\n        }\n    }\n\n    //-----------------------------------------------User-----------------------------------------------\n\n    function isUserRegistered(address _addr) public view returns (bool) {\n        if (RegisteredUserMapping[_addr]) {\n            return true;\n        } else {\n            return false;\n        }\n    }\n\n    function registerUser(\n        string memory _name,\n        uint _age,\n        string memory _city,\n        string memory _aadharNumber,\n        string memory _panNumber,\n        string memory _document,\n        string memory _email\n    ) public {\n        require(!RegisteredUserMapping[msg.sender]);\n\n        RegisteredUserMapping[msg.sender] = true;\n        userCount++;\n        allUsersList[1].push(msg.sender);\n        AllUsers[userCount] = msg.sender;\n        UserMapping[msg.sender] = User(\n            msg.sender,\n            _name,\n            _age,\n            _city,\n            _aadharNumber,\n            _panNumber,\n            _document,\n            _email,\n            false\n        );\n    }\n\n    function verifyUser(address _userId) public {\n        require(isLandInspector(msg.sender));\n        UserMapping[_userId].isUserVerified = true;\n    }\n\n    function isUserVerified(address id) public view returns (bool) {\n        return UserMapping[id].isUserVerified;\n    }\n\n    function ReturnAllUserList() public view returns (address[] memory) {\n        return allUsersList[1];\n    }\n\n    //-----------------------------------------------Land-----------------------------------------------\n    function addLand(\n        uint _area,\n        string memory _address,\n        uint landPrice,\n        string memory _allLatiLongi,\n        uint _propertyPID,\n        string memory _surveyNum,\n        string memory _document\n    ) public {\n        require(isUserVerified(msg.sender));\n        landsCount++;\n        lands[landsCount] = Landreg(\n            landsCount,\n            _area,\n            _address,\n            landPrice,\n            _allLatiLongi,\n            _propertyPID,\n            _surveyNum,\n            _document,\n            false,\n            payable(msg.sender),\n            false\n        );\n        MyLands[msg.sender].push(landsCount);\n        allLandList[1].push(landsCount);\n    }\n\n    function ReturnAllLandList() public view returns (uint[] memory) {\n        return allLandList[1];\n    }\n\n    function verifyLand(uint _id) public {\n        require(isLandInspector(msg.sender));\n        lands[_id].isLandVerified = true;\n    }\n\n    function isLandVerified(uint id) public view returns (bool) {\n        return lands[id].isLandVerified;\n    }\n\n    function myAllLands(address id) public view returns (uint[] memory) {\n        return MyLands[id];\n    }\n\n    function makeItforSell(uint id) public {\n        require(lands[id].ownerAddress == msg.sender);\n        lands[id].isforSell = true;\n    }\n\n    function requestforBuy(uint _landId) public {\n        require(isUserVerified(msg.sender) && isLandVerified(_landId));\n        requestCount++;\n        LandRequestMapping[requestCount] = LandRequest(\n            requestCount,\n            lands[_landId].ownerAddress,\n            payable(msg.sender),\n            _landId,\n            reqStatus.requested,\n            false\n        );\n        MyReceivedLandRequest[lands[_landId].ownerAddress].push(requestCount);\n        MySentLandRequest[msg.sender].push(requestCount);\n    }\n\n    function myReceivedLandRequests() public view returns (uint[] memory) {\n        return MyReceivedLandRequest[msg.sender];\n    }\n\n    function mySentLandRequests() public view returns (uint[] memory) {\n        return MySentLandRequest[msg.sender];\n    }\n\n    function acceptRequest(uint _requestId) public {\n        require(LandRequestMapping[_requestId].sellerId == msg.sender);\n        LandRequestMapping[_requestId].requestStatus = reqStatus.accepted;\n    }\n\n    function rejectRequest(uint _requestId) public {\n        require(LandRequestMapping[_requestId].sellerId == msg.sender);\n        LandRequestMapping[_requestId].requestStatus = reqStatus.rejected;\n    }\n\n    function requesteStatus(uint id) public view returns (bool) {\n        return LandRequestMapping[id].isPaymentDone;\n    }\n\n    function landPricef(uint id) public view returns (uint) {\n        return lands[id].landPrice;\n    }\n\n    function makePayment(uint _requestId) public payable {\n        require(\n            LandRequestMapping[_requestId].buyerId == msg.sender &&\n                LandRequestMapping[_requestId].requestStatus ==\n                reqStatus.accepted\n        );\n\n        LandRequestMapping[_requestId].requestStatus = reqStatus.paymentdone;\n        lands[LandRequestMapping[_requestId].landId].ownerAddress.transfer(\n            msg.value\n        );\n        LandRequestMapping[_requestId].isPaymentDone = true;\n        paymentDoneList[1].push(_requestId);\n    }\n\n    function returnPaymentDoneList() public view returns (uint[] memory) {\n        return paymentDoneList[1];\n    }\n\n    function transferOwnership(\n        uint _requestId,\n        string memory documentUrl\n    ) public returns (bool) {\n        require(isLandInspector(msg.sender));\n        if (LandRequestMapping[_requestId].isPaymentDone == false) return false;\n        documentId++;\n        LandRequestMapping[_requestId].requestStatus = reqStatus.commpleted;\n        MyLands[LandRequestMapping[_requestId].buyerId].push(\n            LandRequestMapping[_requestId].landId\n        );\n\n        uint len = MyLands[LandRequestMapping[_requestId].sellerId].length;\n        for (uint i = 0; i < len; i++) {\n            if (\n                MyLands[LandRequestMapping[_requestId].sellerId][i] ==\n                LandRequestMapping[_requestId].landId\n            ) {\n                MyLands[LandRequestMapping[_requestId].sellerId][i] = MyLands[\n                    LandRequestMapping[_requestId].sellerId\n                ][len - 1];\n                MyLands[LandRequestMapping[_requestId].sellerId].pop();\n                break;\n            }\n        }\n        lands[LandRequestMapping[_requestId].landId].document = documentUrl;\n        lands[LandRequestMapping[_requestId].landId].isforSell = false;\n        lands[LandRequestMapping[_requestId].landId]\n            .ownerAddress = LandRequestMapping[_requestId].buyerId;\n        return true;\n    }\n\n    function makePaymentTestFun(address payable _reveiver) public payable {\n        _reveiver.transfer(msg.value);\n    }\n}\n",
  "sourcePath": "/home/xntrik/Desktop/Land-Registry-Using-Blockchain/contracts/landContract.sol",
  "compiler": {
    "name": "solc",
    "version": "0.8.19+commit.7dd6d404.Emscripten.clang"
  },
  "schemaVersion": "3.4.13",
  "updatedAt": "2023-04-06T18:45:43.403Z",
  "networkType": "ethereum",
  "devdoc": {
    "kind": "dev",
    "methods": {},
    "version": 1
  },
  "userdoc": {
    "kind": "user",
    "methods": {},
    "version": 1
  }
}