{
  "contractName": "Land",
  "abi": [
    {
      "inputs": [],
      "stateMutability": "nonpayable",
      "type": "constructor"
    },
    {
      "anonymous": false,
      "inputs": [
        {
          "indexed": true,
          "internalType": "address",
          "name": "sender",
          "type": "address"
        },
        {
          "indexed": false,
          "internalType": "address",
          "name": "recipient",
          "type": "address"
        },
        {
          "indexed": false,
          "internalType": "string",
          "name": "name",
          "type": "string"
        },
        {
          "indexed": false,
          "internalType": "uint256",
          "name": "age",
          "type": "uint256"
        },
        {
          "indexed": false,
          "internalType": "string",
          "name": "designation",
          "type": "string"
        },
        {
          "indexed": false,
          "internalType": "string",
          "name": "city",
          "type": "string"
        }
      ],
      "name": "LiAdd",
      "type": "event"
    },
    {
      "inputs": [
        {
          "internalType": "address",
          "name": "",
          "type": "address"
        }
      ],
      "name": "InspMap",
      "outputs": [
        {
          "internalType": "uint256",
          "name": "id",
          "type": "uint256"
        },
        {
          "internalType": "address",
          "name": "_addr",
          "type": "address"
        },
        {
          "internalType": "string",
          "name": "name",
          "type": "string"
        },
        {
          "internalType": "uint256",
          "name": "age",
          "type": "uint256"
        },
        {
          "internalType": "string",
          "name": "designation",
          "type": "string"
        },
        {
          "internalType": "string",
          "name": "city",
          "type": "string"
        }
      ],
      "stateMutability": "view",
      "type": "function",
      "constant": true
    },
    {
      "inputs": [
        {
          "internalType": "uint256",
          "name": "",
          "type": "uint256"
        }
      ],
      "name": "LandRequestMap",
      "outputs": [
        {
          "internalType": "uint256",
          "name": "reqId",
          "type": "uint256"
        },
        {
          "internalType": "address payable",
          "name": "sellerId",
          "type": "address"
        },
        {
          "internalType": "address payable",
          "name": "buyerId",
          "type": "address"
        },
        {
          "internalType": "uint256",
          "name": "landId",
          "type": "uint256"
        },
        {
          "internalType": "enum Land.reqStatus",
          "name": "requestStatus",
          "type": "uint8"
        },
        {
          "internalType": "bool",
          "name": "isPaymentDone",
          "type": "bool"
        }
      ],
      "stateMutability": "view",
      "type": "function",
      "constant": true
    },
    {
      "inputs": [
        {
          "internalType": "address",
          "name": "",
          "type": "address"
        }
      ],
      "name": "UserMap",
      "outputs": [
        {
          "internalType": "address",
          "name": "id",
          "type": "address"
        },
        {
          "internalType": "string",
          "name": "name",
          "type": "string"
        },
        {
          "internalType": "uint256",
          "name": "age",
          "type": "uint256"
        },
        {
          "internalType": "string",
          "name": "city",
          "type": "string"
        },
        {
          "internalType": "string",
          "name": "aadharNumber",
          "type": "string"
        },
        {
          "internalType": "string",
          "name": "panNumber",
          "type": "string"
        },
        {
          "internalType": "string",
          "name": "document",
          "type": "string"
        },
        {
          "internalType": "string",
          "name": "email",
          "type": "string"
        },
        {
          "internalType": "bool",
          "name": "userVerified",
          "type": "bool"
        }
      ],
      "stateMutability": "view",
      "type": "function",
      "constant": true
    },
    {
      "inputs": [],
      "name": "documentId",
      "outputs": [
        {
          "internalType": "uint256",
          "name": "",
          "type": "uint256"
        }
      ],
      "stateMutability": "view",
      "type": "function",
      "constant": true
    },
    {
      "inputs": [],
      "name": "landsCount",
      "outputs": [
        {
          "internalType": "uint256",
          "name": "",
          "type": "uint256"
        }
      ],
      "stateMutability": "view",
      "type": "function",
      "constant": true
    },
    {
      "inputs": [
        {
          "internalType": "uint256",
          "name": "",
          "type": "uint256"
        }
      ],
      "name": "landsMap",
      "outputs": [
        {
          "internalType": "uint256",
          "name": "id",
          "type": "uint256"
        },
        {
          "internalType": "uint256",
          "name": "area",
          "type": "uint256"
        },
        {
          "internalType": "string",
          "name": "landAddress",
          "type": "string"
        },
        {
          "internalType": "uint256",
          "name": "landPrice",
          "type": "uint256"
        },
        {
          "internalType": "string",
          "name": "allLatitudeLongitude",
          "type": "string"
        },
        {
          "internalType": "uint256",
          "name": "propertyPID",
          "type": "uint256"
        },
        {
          "internalType": "string",
          "name": "physicalSurveyNumber",
          "type": "string"
        },
        {
          "internalType": "string",
          "name": "document",
          "type": "string"
        },
        {
          "internalType": "bool",
          "name": "isforSell",
          "type": "bool"
        },
        {
          "internalType": "address payable",
          "name": "ownerAddress",
          "type": "address"
        },
        {
          "internalType": "bool",
          "name": "landVerified",
          "type": "bool"
        }
      ],
      "stateMutability": "view",
      "type": "function",
      "constant": true
    },
    {
      "inputs": [],
      "name": "userCount",
      "outputs": [
        {
          "internalType": "uint256",
          "name": "",
          "type": "uint256"
        }
      ],
      "stateMutability": "view",
      "type": "function",
      "constant": true
    },
    {
      "inputs": [
        {
          "internalType": "address",
          "name": "_addr",
          "type": "address"
        }
      ],
      "name": "isContractOwner",
      "outputs": [
        {
          "internalType": "bool",
          "name": "",
          "type": "bool"
        }
      ],
      "stateMutability": "view",
      "type": "function",
      "constant": true
    },
    {
      "inputs": [
        {
          "internalType": "address",
          "name": "_addr",
          "type": "address"
        }
      ],
      "name": "changeContractOwner",
      "outputs": [],
      "stateMutability": "nonpayable",
      "type": "function"
    },
    {
      "inputs": [
        {
          "internalType": "address",
          "name": "_addr",
          "type": "address"
        },
        {
          "internalType": "string",
          "name": "_inspName",
          "type": "string"
        },
        {
          "internalType": "uint256",
          "name": "_inspAge",
          "type": "uint256"
        },
        {
          "internalType": "string",
          "name": "_designation",
          "type": "string"
        },
        {
          "internalType": "string",
          "name": "_city",
          "type": "string"
        }
      ],
      "name": "addLandInspector",
      "outputs": [],
      "stateMutability": "nonpayable",
      "type": "function"
    },
    {
      "inputs": [],
      "name": "ReturnAllLandIncpectorList",
      "outputs": [
        {
          "internalType": "address[]",
          "name": "",
          "type": "address[]"
        }
      ],
      "stateMutability": "view",
      "type": "function",
      "constant": true
    },
    {
      "inputs": [
        {
          "internalType": "address",
          "name": "_addr",
          "type": "address"
        }
      ],
      "name": "removeLandInspector",
      "outputs": [],
      "stateMutability": "nonpayable",
      "type": "function"
    },
    {
      "inputs": [
        {
          "internalType": "address",
          "name": "_id",
          "type": "address"
        }
      ],
      "name": "isLandInspector",
      "outputs": [
        {
          "internalType": "bool",
          "name": "",
          "type": "bool"
        }
      ],
      "stateMutability": "view",
      "type": "function",
      "constant": true
    },
    {
      "inputs": [
        {
          "internalType": "address",
          "name": "_addr",
          "type": "address"
        }
      ],
      "name": "isUserRegistered",
      "outputs": [
        {
          "internalType": "bool",
          "name": "",
          "type": "bool"
        }
      ],
      "stateMutability": "view",
      "type": "function",
      "constant": true
    },
    {
      "inputs": [
        {
          "internalType": "string",
          "name": "_userName",
          "type": "string"
        },
        {
          "internalType": "uint256",
          "name": "_userAge",
          "type": "uint256"
        },
        {
          "internalType": "string",
          "name": "_city",
          "type": "string"
        },
        {
          "internalType": "string",
          "name": "_aadharNumber",
          "type": "string"
        },
        {
          "internalType": "string",
          "name": "_panNumber",
          "type": "string"
        },
        {
          "internalType": "string",
          "name": "_document",
          "type": "string"
        },
        {
          "internalType": "string",
          "name": "_email",
          "type": "string"
        }
      ],
      "name": "registerUser",
      "outputs": [],
      "stateMutability": "nonpayable",
      "type": "function"
    },
    {
      "inputs": [
        {
          "internalType": "address",
          "name": "_userId",
          "type": "address"
        }
      ],
      "name": "verifyUser",
      "outputs": [],
      "stateMutability": "nonpayable",
      "type": "function"
    },
    {
      "inputs": [
        {
          "internalType": "address",
          "name": "id",
          "type": "address"
        }
      ],
      "name": "isUserVerified",
      "outputs": [
        {
          "internalType": "bool",
          "name": "",
          "type": "bool"
        }
      ],
      "stateMutability": "view",
      "type": "function",
      "constant": true
    },
    {
      "inputs": [],
      "name": "ReturnAllUserList",
      "outputs": [
        {
          "internalType": "address[]",
          "name": "",
          "type": "address[]"
        }
      ],
      "stateMutability": "view",
      "type": "function",
      "constant": true
    },
    {
      "inputs": [
        {
          "internalType": "uint256",
          "name": "_area",
          "type": "uint256"
        },
        {
          "internalType": "string",
          "name": "_address",
          "type": "string"
        },
        {
          "internalType": "uint256",
          "name": "_landPrice",
          "type": "uint256"
        },
        {
          "internalType": "string",
          "name": "_allLatiLongi",
          "type": "string"
        },
        {
          "internalType": "uint256",
          "name": "_propertyPID",
          "type": "uint256"
        },
        {
          "internalType": "string",
          "name": "_surveyNum",
          "type": "string"
        },
        {
          "internalType": "string",
          "name": "_document",
          "type": "string"
        }
      ],
      "name": "addLand",
      "outputs": [],
      "stateMutability": "nonpayable",
      "type": "function"
    },
    {
      "inputs": [],
      "name": "ReturnAllLandList",
      "outputs": [
        {
          "internalType": "uint256[]",
          "name": "",
          "type": "uint256[]"
        }
      ],
      "stateMutability": "view",
      "type": "function",
      "constant": true
    },
    {
      "inputs": [
        {
          "internalType": "uint256",
          "name": "_id",
          "type": "uint256"
        }
      ],
      "name": "verifyLand",
      "outputs": [],
      "stateMutability": "nonpayable",
      "type": "function"
    },
    {
      "inputs": [
        {
          "internalType": "uint256",
          "name": "id",
          "type": "uint256"
        }
      ],
      "name": "isLandVerified",
      "outputs": [
        {
          "internalType": "bool",
          "name": "",
          "type": "bool"
        }
      ],
      "stateMutability": "view",
      "type": "function",
      "constant": true
    },
    {
      "inputs": [
        {
          "internalType": "address",
          "name": "id",
          "type": "address"
        }
      ],
      "name": "myAllLands",
      "outputs": [
        {
          "internalType": "uint256[]",
          "name": "",
          "type": "uint256[]"
        }
      ],
      "stateMutability": "view",
      "type": "function",
      "constant": true
    },
    {
      "inputs": [
        {
          "internalType": "uint256",
          "name": "id",
          "type": "uint256"
        }
      ],
      "name": "makeItforSell",
      "outputs": [],
      "stateMutability": "nonpayable",
      "type": "function"
    },
    {
      "inputs": [
        {
          "internalType": "uint256",
          "name": "_landId",
          "type": "uint256"
        }
      ],
      "name": "requestforBuy",
      "outputs": [],
      "stateMutability": "nonpayable",
      "type": "function"
    },
    {
      "inputs": [],
      "name": "myReceivedLandRequests",
      "outputs": [
        {
          "internalType": "uint256[]",
          "name": "",
          "type": "uint256[]"
        }
      ],
      "stateMutability": "view",
      "type": "function",
      "constant": true
    },
    {
      "inputs": [],
      "name": "mySentLandRequests",
      "outputs": [
        {
          "internalType": "uint256[]",
          "name": "",
          "type": "uint256[]"
        }
      ],
      "stateMutability": "view",
      "type": "function",
      "constant": true
    },
    {
      "inputs": [
        {
          "internalType": "uint256",
          "name": "_requestId",
          "type": "uint256"
        }
      ],
      "name": "acceptRequest",
      "outputs": [],
      "stateMutability": "nonpayable",
      "type": "function"
    },
    {
      "inputs": [
        {
          "internalType": "uint256",
          "name": "_requestId",
          "type": "uint256"
        }
      ],
      "name": "rejectRequest",
      "outputs": [],
      "stateMutability": "nonpayable",
      "type": "function"
    },
    {
      "inputs": [
        {
          "internalType": "uint256",
          "name": "id",
          "type": "uint256"
        }
      ],
      "name": "requesteStatus",
      "outputs": [
        {
          "internalType": "bool",
          "name": "",
          "type": "bool"
        }
      ],
      "stateMutability": "view",
      "type": "function",
      "constant": true
    },
    {
      "inputs": [
        {
          "internalType": "uint256",
          "name": "id",
          "type": "uint256"
        }
      ],
      "name": "landPrice",
      "outputs": [
        {
          "internalType": "uint256",
          "name": "",
          "type": "uint256"
        }
      ],
      "stateMutability": "view",
      "type": "function",
      "constant": true
    },
    {
      "inputs": [
        {
          "internalType": "uint256",
          "name": "_requestId",
          "type": "uint256"
        }
      ],
      "name": "makePayment",
      "outputs": [],
      "stateMutability": "payable",
      "type": "function",
      "payable": true
    },
    {
      "inputs": [],
      "name": "returnPaymentDoneList",
      "outputs": [
        {
          "internalType": "uint256[]",
          "name": "",
          "type": "uint256[]"
        }
      ],
      "stateMutability": "view",
      "type": "function",
      "constant": true
    },
    {
      "inputs": [
        {
          "internalType": "uint256",
          "name": "_requestId",
          "type": "uint256"
        },
        {
          "internalType": "string",
          "name": "documentUrl",
          "type": "string"
        }
      ],
      "name": "transferOwnership",
      "outputs": [],
      "stateMutability": "nonpayable",
      "type": "function"
    }
  ],
  "bytecode": "0x608060405234801561000f575f80fd5b50335f806101000a81548173ffffffffffffffffffffffffffffffffffffffff021916908373ffffffffffffffffffffffffffffffffffffffff160217905550614a038061005c5f395ff3fe6080604052600436106101f8575f3560e01c80639c32e3b41161010c578063d3b368c01161009f578063e165af871161006e578063e165af8714610764578063e2e77f30146107a0578063edfbe247146107e6578063f9c43bdf1461080e578063fa02454914610836576101f8565b8063d3b368c014610688578063d72ca9ec146106b0578063d8513de4146106ec578063de11768814610728576101f8565b8063c6dcdc37116100db578063c6dcdc37146105d2578063ccfdc19b146105fa578063d196ebf214610622578063d251839b1461065e576101f8565b80639c32e3b41461051a578063a846fc8f14610544578063ace417e01461056e578063c26e11eb146105aa576101f8565b80633ead67b51161018f5780635114cb521161015e5780635114cb5214610446578063553a998d146104625780636cbf6cf81461048c5780637517e00f146104c857806378f7c83f146104f0576101f8565b80633ead67b5146103a4578063499701b2146103cc5780634ba1f098146103f65780634d8131201461041e576101f8565b806326d930cd116101cb57806326d930cd146102b65780632d7788db146102f757806331c02c111461031f57806339ec840d14610363576101f8565b806307973ccf146101fc578063163f7522146102265780631c9afd0f1461026257806323393d771461028c575b5f80fd5b348015610207575f80fd5b5061021061085e565b60405161021d91906133c6565b60405180910390f35b348015610231575f80fd5b5061024c6004803603810190610247919061344a565b610864565b604051610259919061348f565b60405180910390f35b34801561026d575f80fd5b506102766108c6565b60405161028391906133c6565b60405180910390f35b348015610297575f80fd5b506102a06108cc565b6040516102ad919061355f565b60405180910390f35b3480156102c1575f80fd5b506102dc60048036038101906102d7919061344a565b610932565b6040516102ee96959493929190613618565b60405180910390f35b348015610302575f80fd5b5061031d600480360381019061031891906136b6565b610b1b565b005b34801561032a575f80fd5b506103456004803603810190610340919061344a565b610bfd565b60405161035a999897969594939291906136e1565b60405180910390f35b34801561036e575f80fd5b50610389600480360381019061038491906136b6565b610f96565b60405161039b96959493929190613829565b60405180910390f35b3480156103af575f80fd5b506103ca60048036038101906103c5919061344a565b611025565b005b3480156103d7575f80fd5b506103e06110f4565b6040516103ed919061355f565b60405180910390f35b348015610401575f80fd5b5061041c600480360381019061041791906136b6565b611185565b005b348015610429575f80fd5b50610444600480360381019061043f919061344a565b611267565b005b610460600480360381019061045b91906136b6565b61130a565b005b34801561046d575f80fd5b506104766115d0565b604051610483919061393f565b60405180910390f35b348015610497575f80fd5b506104b260048036038101906104ad91906136b6565b61166b565b6040516104bf919061348f565b60405180910390f35b3480156104d3575f80fd5b506104ee60048036038101906104e9919061344a565b611695565b005b3480156104fb575f80fd5b506105046119e9565b60405161051191906133c6565b60405180910390f35b348015610525575f80fd5b5061052e6119ef565b60405161053b919061355f565b60405180910390f35b34801561054f575f80fd5b50610558611a80565b604051610565919061355f565b60405180910390f35b348015610579575f80fd5b50610594600480360381019061058f919061344a565b611ae6565b6040516105a1919061348f565b60405180910390f35b3480156105b5575f80fd5b506105d060048036038101906105cb91906136b6565b611b3b565b005b3480156105dd575f80fd5b506105f860048036038101906105f39190613a8b565b611c0c565b005b348015610605575f80fd5b50610620600480360381019061061b9190613b56565b611f80565b005b34801561062d575f80fd5b506106486004803603810190610643919061344a565b612208565b604051610655919061355f565b60405180910390f35b348015610669575f80fd5b5061067261229b565b60405161067f919061393f565b60405180910390f35b348015610693575f80fd5b506106ae60048036038101906106a991906136b6565b612336565b005b3480156106bb575f80fd5b506106d660048036038101906106d191906136b6565b612680565b6040516106e391906133c6565b60405180910390f35b3480156106f7575f80fd5b50610712600480360381019061070d91906136b6565b61269d565b60405161071f919061348f565b60405180910390f35b348015610733575f80fd5b5061074e6004803603810190610749919061344a565b6126c7565b60405161075b919061348f565b60405180910390f35b34801561076f575f80fd5b5061078a6004803603810190610785919061344a565b61272d565b604051610797919061348f565b60405180910390f35b3480156107ab575f80fd5b506107c660048036038101906107c191906136b6565b61278f565b6040516107dd9b9a99989796959493929190613c63565b60405180910390f35b3480156107f1575f80fd5b5061080c60048036038101906108079190613d28565b612a36565b005b348015610819575f80fd5b50610834600480360381019061082f91906136b6565b612d80565b005b348015610841575f80fd5b5061085c60048036038101906108579190613e6d565b612df8565b005b60025481565b5f600c5f8373ffffffffffffffffffffffffffffffffffffffff1673ffffffffffffffffffffffffffffffffffffffff1681526020019081526020015f205f9054906101000a900460ff16156108bd57600190506108c1565b5f90505b919050565b60035481565b606060125f600181526020019081526020015f2080548060200260200160405190810160405280929190818152602001828054801561092857602002820191905f5260205f20905b815481526020019060010190808311610914575b5050505050905090565b6006602052805f5260405f205f91509050805f015490806001015f9054906101000a900473ffffffffffffffffffffffffffffffffffffffff169080600201805461097c90613ef4565b80601f01602080910402602001604051908101604052809291908181526020018280546109a890613ef4565b80156109f35780601f106109ca576101008083540402835291602001916109f3565b820191905f5260205f20905b8154815290600101906020018083116109d657829003601f168201915b505050505090806003015490806004018054610a0e90613ef4565b80601f0160208091040260200160405190810160405280929190818152602001828054610a3a90613ef4565b8015610a855780601f10610a5c57610100808354040283529160200191610a85565b820191905f5260205f20905b815481529060010190602001808311610a6857829003601f168201915b505050505090806005018054610a9a90613ef4565b80601f0160208091040260200160405190810160405280929190818152602001828054610ac690613ef4565b8015610b115780601f10610ae857610100808354040283529160200191610b11565b820191905f5260205f20905b815481529060010190602001808311610af457829003601f168201915b5050505050905086565b803373ffffffffffffffffffffffffffffffffffffffff16600f5f8381526020019081526020015f206001015f9054906101000a900473ffffffffffffffffffffffffffffffffffffffff1673ffffffffffffffffffffffffffffffffffffffff1614610bbd576040517f08c379a0000000000000000000000000000000000000000000000000000000008152600401610bb490613f94565b60405180910390fd5b6002600f5f8481526020019081526020015f206004015f6101000a81548160ff02191690836004811115610bf457610bf36137b6565b5b02179055505050565b6009602052805f5260405f205f91509050805f015f9054906101000a900473ffffffffffffffffffffffffffffffffffffffff1690806001018054610c4190613ef4565b80601f0160208091040260200160405190810160405280929190818152602001828054610c6d90613ef4565b8015610cb85780601f10610c8f57610100808354040283529160200191610cb8565b820191905f5260205f20905b815481529060010190602001808311610c9b57829003601f168201915b505050505090806002015490806003018054610cd390613ef4565b80601f0160208091040260200160405190810160405280929190818152602001828054610cff90613ef4565b8015610d4a5780601f10610d2157610100808354040283529160200191610d4a565b820191905f5260205f20905b815481529060010190602001808311610d2d57829003601f168201915b505050505090806004018054610d5f90613ef4565b80601f0160208091040260200160405190810160405280929190818152602001828054610d8b90613ef4565b8015610dd65780601f10610dad57610100808354040283529160200191610dd6565b820191905f5260205f20905b815481529060010190602001808311610db957829003601f168201915b505050505090806005018054610deb90613ef4565b80601f0160208091040260200160405190810160405280929190818152602001828054610e1790613ef4565b8015610e625780601f10610e3957610100808354040283529160200191610e62565b820191905f5260205f20905b815481529060010190602001808311610e4557829003601f168201915b505050505090806006018054610e7790613ef4565b80601f0160208091040260200160405190810160405280929190818152602001828054610ea390613ef4565b8015610eee5780601f10610ec557610100808354040283529160200191610eee565b820191905f5260205f20905b815481529060010190602001808311610ed157829003601f168201915b505050505090806007018054610f0390613ef4565b80601f0160208091040260200160405190810160405280929190818152602001828054610f2f90613ef4565b8015610f7a5780601f10610f5157610100808354040283529160200191610f7a565b820191905f5260205f20905b815481529060010190602001808311610f5d57829003601f168201915b505050505090806008015f9054906101000a900460ff16905089565b600f602052805f5260405f205f91509050805f015490806001015f9054906101000a900473ffffffffffffffffffffffffffffffffffffffff1690806002015f9054906101000a900473ffffffffffffffffffffffffffffffffffffffff1690806003015490806004015f9054906101000a900460ff16908060040160019054906101000a900460ff16905086565b5f8054906101000a900473ffffffffffffffffffffffffffffffffffffffff1673ffffffffffffffffffffffffffffffffffffffff163373ffffffffffffffffffffffffffffffffffffffff16146110b2576040517f08c379a00000000000000000000000000000000000000000000000000000000081526004016110a990614022565b60405180910390fd5b805f806101000a81548173ffffffffffffffffffffffffffffffffffffffff021916908373ffffffffffffffffffffffffffffffffffffffff16021790555050565b606060105f3373ffffffffffffffffffffffffffffffffffffffff1673ffffffffffffffffffffffffffffffffffffffff1681526020019081526020015f2080548060200260200160405190810160405280929190818152602001828054801561117b57602002820191905f5260205f20905b815481526020019060010190808311611167575b5050505050905090565b803373ffffffffffffffffffffffffffffffffffffffff16600f5f8381526020019081526020015f206001015f9054906101000a900473ffffffffffffffffffffffffffffffffffffffff1673ffffffffffffffffffffffffffffffffffffffff1614611227576040517f08c379a000000000000000000000000000000000000000000000000000000000815260040161121e90613f94565b60405180910390fd5b6001600f5f8481526020019081526020015f206004015f6101000a81548160ff0219169083600481111561125e5761125d6137b6565b5b02179055505050565b6112703361272d565b6112af576040517f08c379a00000000000000000000000000000000000000000000000000000000081526004016112a6906140b0565b60405180910390fd5b600160095f8373ffffffffffffffffffffffffffffffffffffffff1673ffffffffffffffffffffffffffffffffffffffff1681526020019081526020015f206008015f6101000a81548160ff02191690831515021790555050565b3373ffffffffffffffffffffffffffffffffffffffff16600f5f8381526020019081526020015f206002015f9054906101000a900473ffffffffffffffffffffffffffffffffffffffff1673ffffffffffffffffffffffffffffffffffffffff16146113ab576040517f08c379a00000000000000000000000000000000000000000000000000000000081526004016113a29061413e565b60405180910390fd5b600160048111156113bf576113be6137b6565b5b600f5f8381526020019081526020015f206004015f9054906101000a900460ff1660048111156113f2576113f16137b6565b5b14611432576040517f08c379a0000000000000000000000000000000000000000000000000000000008152600401611429906141cc565b60405180910390fd5b34600e5f600f5f8581526020019081526020015f206003015481526020019081526020015f2060080160019054906101000a900473ffffffffffffffffffffffffffffffffffffffff1673ffffffffffffffffffffffffffffffffffffffff163110156114a2576114a16141ea565b5b600e5f600f5f8481526020019081526020015f206003015481526020019081526020015f2060080160019054906101000a900473ffffffffffffffffffffffffffffffffffffffff1673ffffffffffffffffffffffffffffffffffffffff166108fc3490811502906040515f60405180830381858888f1935050505015801561152d573d5f803e3d5ffd5b506003600f5f8381526020019081526020015f206004015f6101000a81548160ff02191690836004811115611565576115646137b6565b5b02179055506001600f5f8381526020019081526020015f2060040160016101000a81548160ff02191690831515021790555060135f600181526020019081526020015f2081908060018154018082558091505060019003905f5260205f20015f909190919091505550565b6060600b5f600181526020019081526020015f2080548060200260200160405190810160405280929190818152602001828054801561166157602002820191905f5260205f20905b815f9054906101000a900473ffffffffffffffffffffffffffffffffffffffff1673ffffffffffffffffffffffffffffffffffffffff1681526020019060010190808311611618575b5050505050905090565b5f600e5f8381526020019081526020015f2060080160159054906101000a900460ff169050919050565b5f8054906101000a900473ffffffffffffffffffffffffffffffffffffffff1673ffffffffffffffffffffffffffffffffffffffff163373ffffffffffffffffffffffffffffffffffffffff1614611722576040517f08c379a000000000000000000000000000000000000000000000000000000000815260040161171990614022565b60405180910390fd5b60085f8273ffffffffffffffffffffffffffffffffffffffff1673ffffffffffffffffffffffffffffffffffffffff1681526020019081526020015f205f9054906101000a900460ff166117ab576040517f08c379a00000000000000000000000000000000000000000000000000000000081526004016117a290614287565b60405180910390fd5b5f60085f8373ffffffffffffffffffffffffffffffffffffffff1673ffffffffffffffffffffffffffffffffffffffff1681526020019081526020015f205f6101000a81548160ff0219169083151502179055505f60075f600181526020019081526020015f208054905090505f5b818110156119e4578273ffffffffffffffffffffffffffffffffffffffff1660075f600181526020019081526020015f20828154811061185d5761185c6142a5565b5b905f5260205f20015f9054906101000a900473ffffffffffffffffffffffffffffffffffffffff1673ffffffffffffffffffffffffffffffffffffffff16036119d15760075f600181526020019081526020015f206001836118bf91906142ff565b815481106118d0576118cf6142a5565b5b905f5260205f20015f9054906101000a900473ffffffffffffffffffffffffffffffffffffffff1660075f600181526020019081526020015f20828154811061191c5761191b6142a5565b5b905f5260205f20015f6101000a81548173ffffffffffffffffffffffffffffffffffffffff021916908373ffffffffffffffffffffffffffffffffffffffff16021790555060075f600181526020019081526020015f2080548061198357611982614332565b5b600190038181905f5260205f20015f6101000a81549073ffffffffffffffffffffffffffffffffffffffff0219169055905560015f8154809291906119c79061435f565b91905055506119e4565b80806119dc90614386565b91505061181a565b505050565b60045481565b606060115f3373ffffffffffffffffffffffffffffffffffffffff1673ffffffffffffffffffffffffffffffffffffffff1681526020019081526020015f20805480602002602001604051908101604052809291908181526020018280548015611a7657602002820191905f5260205f20905b815481526020019060010190808311611a62575b5050505050905090565b606060135f600181526020019081526020015f20805480602002602001604051908101604052809291908181526020018280548015611adc57602002820191905f5260205f20905b815481526020019060010190808311611ac8575b5050505050905090565b5f60095f8373ffffffffffffffffffffffffffffffffffffffff1673ffffffffffffffffffffffffffffffffffffffff1681526020019081526020015f206008015f9054906101000a900460ff169050919050565b3373ffffffffffffffffffffffffffffffffffffffff16600e5f8381526020019081526020015f2060080160019054906101000a900473ffffffffffffffffffffffffffffffffffffffff1673ffffffffffffffffffffffffffffffffffffffff1614611bdd576040517f08c379a0000000000000000000000000000000000000000000000000000000008152600401611bd49061443d565b60405180910390fd5b6001600e5f8381526020019081526020015f206008015f6101000a81548160ff02191690831515021790555050565b5f8054906101000a900473ffffffffffffffffffffffffffffffffffffffff1673ffffffffffffffffffffffffffffffffffffffff163373ffffffffffffffffffffffffffffffffffffffff1614611c99576040517f08c379a0000000000000000000000000000000000000000000000000000000008152600401611c9090614022565b60405180910390fd5b5f151560085f8773ffffffffffffffffffffffffffffffffffffffff1673ffffffffffffffffffffffffffffffffffffffff1681526020019081526020015f205f9054906101000a900460ff16151514611d28576040517f08c379a0000000000000000000000000000000000000000000000000000000008152600401611d1f906144a5565b60405180910390fd5b600160085f8773ffffffffffffffffffffffffffffffffffffffff1673ffffffffffffffffffffffffffffffffffffffff1681526020019081526020015f205f6101000a81548160ff02191690831515021790555060075f600181526020019081526020015f2085908060018154018082558091505060019003905f5260205f20015f9091909190916101000a81548173ffffffffffffffffffffffffffffffffffffffff021916908373ffffffffffffffffffffffffffffffffffffffff16021790555060015f815480929190611dff90614386565b91905055506040518060c0016040528060015481526020018673ffffffffffffffffffffffffffffffffffffffff1681526020018581526020018481526020018381526020018281525060065f8773ffffffffffffffffffffffffffffffffffffffff1673ffffffffffffffffffffffffffffffffffffffff1681526020019081526020015f205f820151815f01556020820151816001015f6101000a81548173ffffffffffffffffffffffffffffffffffffffff021916908373ffffffffffffffffffffffffffffffffffffffff1602179055506040820151816002019081611ee99190614660565b50606082015181600301556080820151816004019081611f099190614660565b5060a0820151816005019081611f1f9190614660565b509050503373ffffffffffffffffffffffffffffffffffffffff167f6835d141ae774f5a51ed4cb85495b7f3f8b61a13692fea667b55d038fdb7b54e8686868686604051611f7195949392919061472f565b60405180910390a25050505050565b611f8933611ae6565b611fc8576040517f08c379a0000000000000000000000000000000000000000000000000000000008152600401611fbf90614805565b60405180910390fd5b60035f815480929190611fda90614386565b919050555060405180610160016040528060035481526020018881526020018781526020018681526020018581526020018481526020018381526020018281526020015f151581526020013373ffffffffffffffffffffffffffffffffffffffff1681526020015f1515815250600e5f60035481526020019081526020015f205f820151815f01556020820151816001015560408201518160020190816120819190614660565b506060820151816003015560808201518160040190816120a19190614660565b5060a0820151816005015560c08201518160060190816120c19190614660565b5060e08201518160070190816120d79190614660565b50610100820151816008015f6101000a81548160ff0219169083151502179055506101208201518160080160016101000a81548173ffffffffffffffffffffffffffffffffffffffff021916908373ffffffffffffffffffffffffffffffffffffffff1602179055506101408201518160080160156101000a81548160ff021916908315150217905550905050600d5f3373ffffffffffffffffffffffffffffffffffffffff1673ffffffffffffffffffffffffffffffffffffffff1681526020019081526020015f20600354908060018154018082558091505060019003905f5260205f20015f909190919091505560125f600181526020019081526020015f20600354908060018154018082558091505060019003905f5260205f20015f909190919091505550505050505050565b6060600d5f8373ffffffffffffffffffffffffffffffffffffffff1673ffffffffffffffffffffffffffffffffffffffff1681526020019081526020015f2080548060200260200160405190810160405280929190818152602001828054801561228f57602002820191905f5260205f20905b81548152602001906001019080831161227b575b50505050509050919050565b606060075f600181526020019081526020015f2080548060200260200160405190810160405280929190818152602001828054801561232c57602002820191905f5260205f20905b815f9054906101000a900473ffffffffffffffffffffffffffffffffffffffff1673ffffffffffffffffffffffffffffffffffffffff16815260200190600101908083116122e3575b5050505050905090565b61233f33611ae6565b61237e576040517f08c379a000000000000000000000000000000000000000000000000000000000815260040161237590614805565b60405180910390fd5b6123878161166b565b6123c6576040517f08c379a00000000000000000000000000000000000000000000000000000000081526004016123bd90614893565b60405180910390fd5b60055f8154809291906123d890614386565b91905055506040518060c001604052806005548152602001600e5f8481526020019081526020015f2060080160019054906101000a900473ffffffffffffffffffffffffffffffffffffffff1673ffffffffffffffffffffffffffffffffffffffff1681526020013373ffffffffffffffffffffffffffffffffffffffff1681526020018281526020015f6004811115612475576124746137b6565b5b81526020015f1515815250600f5f60055481526020019081526020015f205f820151815f01556020820151816001015f6101000a81548173ffffffffffffffffffffffffffffffffffffffff021916908373ffffffffffffffffffffffffffffffffffffffff1602179055506040820151816002015f6101000a81548173ffffffffffffffffffffffffffffffffffffffff021916908373ffffffffffffffffffffffffffffffffffffffff160217905550606082015181600301556080820151816004015f6101000a81548160ff0219169083600481111561255b5761255a6137b6565b5b021790555060a08201518160040160016101000a81548160ff02191690831515021790555090505060105f600e5f8481526020019081526020015f2060080160019054906101000a900473ffffffffffffffffffffffffffffffffffffffff1673ffffffffffffffffffffffffffffffffffffffff1673ffffffffffffffffffffffffffffffffffffffff1681526020019081526020015f20600554908060018154018082558091505060019003905f5260205f20015f909190919091505560115f3373ffffffffffffffffffffffffffffffffffffffff1673ffffffffffffffffffffffffffffffffffffffff1681526020019081526020015f20600554908060018154018082558091505060019003905f5260205f20015f909190919091505550565b5f600e5f8381526020019081526020015f20600301549050919050565b5f600f5f8381526020019081526020015f2060040160019054906101000a900460ff169050919050565b5f805f9054906101000a900473ffffffffffffffffffffffffffffffffffffffff1673ffffffffffffffffffffffffffffffffffffffff168273ffffffffffffffffffffffffffffffffffffffff16036127245760019050612728565b5f90505b919050565b5f60085f8373ffffffffffffffffffffffffffffffffffffffff1673ffffffffffffffffffffffffffffffffffffffff1681526020019081526020015f205f9054906101000a900460ff1615612786576001905061278a565b5f90505b919050565b600e602052805f5260405f205f91509050805f0154908060010154908060020180546127ba90613ef4565b80601f01602080910402602001604051908101604052809291908181526020018280546127e690613ef4565b80156128315780601f1061280857610100808354040283529160200191612831565b820191905f5260205f20905b81548152906001019060200180831161281457829003601f168201915b50505050509080600301549080600401805461284c90613ef4565b80601f016020809104026020016040519081016040528092919081815260200182805461287890613ef4565b80156128c35780601f1061289a576101008083540402835291602001916128c3565b820191905f5260205f20905b8154815290600101906020018083116128a657829003601f168201915b5050505050908060050154908060060180546128de90613ef4565b80601f016020809104026020016040519081016040528092919081815260200182805461290a90613ef4565b80156129555780601f1061292c57610100808354040283529160200191612955565b820191905f5260205f20905b81548152906001019060200180831161293857829003601f168201915b50505050509080600701805461296a90613ef4565b80601f016020809104026020016040519081016040528092919081815260200182805461299690613ef4565b80156129e15780601f106129b8576101008083540402835291602001916129e1565b820191905f5260205f20905b8154815290600101906020018083116129c457829003601f168201915b505050505090806008015f9054906101000a900460ff16908060080160019054906101000a900473ffffffffffffffffffffffffffffffffffffffff16908060080160159054906101000a900460ff1690508b565b600c5f3373ffffffffffffffffffffffffffffffffffffffff1673ffffffffffffffffffffffffffffffffffffffff1681526020019081526020015f205f9054906101000a900460ff1615612ac0576040517f08c379a0000000000000000000000000000000000000000000000000000000008152600401612ab7906148fb565b60405180910390fd5b6001600c5f3373ffffffffffffffffffffffffffffffffffffffff1673ffffffffffffffffffffffffffffffffffffffff1681526020019081526020015f205f6101000a81548160ff02191690831515021790555060025f815480929190612b2790614386565b9190505550600b5f600181526020019081526020015f2033908060018154018082558091505060019003905f5260205f20015f9091909190916101000a81548173ffffffffffffffffffffffffffffffffffffffff021916908373ffffffffffffffffffffffffffffffffffffffff16021790555033600a5f60025481526020019081526020015f205f6101000a81548173ffffffffffffffffffffffffffffffffffffffff021916908373ffffffffffffffffffffffffffffffffffffffff1602179055506040518061012001604052803373ffffffffffffffffffffffffffffffffffffffff1681526020018881526020018781526020018681526020018581526020018481526020018381526020018281526020015f151581525060095f3373ffffffffffffffffffffffffffffffffffffffff1673ffffffffffffffffffffffffffffffffffffffff1681526020019081526020015f205f820151815f015f6101000a81548173ffffffffffffffffffffffffffffffffffffffff021916908373ffffffffffffffffffffffffffffffffffffffff1602179055506020820151816001019081612cdb9190614660565b50604082015181600201556060820151816003019081612cfb9190614660565b506080820151816004019081612d119190614660565b5060a0820151816005019081612d279190614660565b5060c0820151816006019081612d3d9190614660565b5060e0820151816007019081612d539190614660565b50610100820151816008015f6101000a81548160ff02191690831515021790555090505050505050505050565b612d893361272d565b612dc8576040517f08c379a0000000000000000000000000000000000000000000000000000000008152600401612dbf906140b0565b60405180910390fd5b6001600e5f8381526020019081526020015f2060080160156101000a81548160ff02191690831515021790555050565b612e013361272d565b612e40576040517f08c379a0000000000000000000000000000000000000000000000000000000008152600401612e37906140b0565b60405180910390fd5b60011515600f5f8481526020019081526020015f2060040160019054906101000a900460ff16151514612ea8576040517f08c379a0000000000000000000000000000000000000000000000000000000008152600401612e9f906149af565b60405180910390fd5b60045f815480929190612eba90614386565b91905055506004600f5f8481526020019081526020015f206004015f6101000a81548160ff02191690836004811115612ef657612ef56137b6565b5b0217905550600d5f600f5f8581526020019081526020015f206002015f9054906101000a900473ffffffffffffffffffffffffffffffffffffffff1673ffffffffffffffffffffffffffffffffffffffff1673ffffffffffffffffffffffffffffffffffffffff1681526020019081526020015f20600f5f8481526020019081526020015f2060030154908060018154018082558091505060019003905f5260205f20015f90919091909150555f600d5f600f5f8681526020019081526020015f206001015f9054906101000a900473ffffffffffffffffffffffffffffffffffffffff1673ffffffffffffffffffffffffffffffffffffffff1673ffffffffffffffffffffffffffffffffffffffff1681526020019081526020015f208054905090505f5b8181101561329957600f5f8581526020019081526020015f2060030154600d5f600f5f8881526020019081526020015f206001015f9054906101000a900473ffffffffffffffffffffffffffffffffffffffff1673ffffffffffffffffffffffffffffffffffffffff1673ffffffffffffffffffffffffffffffffffffffff1681526020019081526020015f2082815481106130bb576130ba6142a5565b5b905f5260205f2001540361328657600d5f600f5f8781526020019081526020015f206001015f9054906101000a900473ffffffffffffffffffffffffffffffffffffffff1673ffffffffffffffffffffffffffffffffffffffff1673ffffffffffffffffffffffffffffffffffffffff1681526020019081526020015f2060018361314691906142ff565b81548110613157576131566142a5565b5b905f5260205f200154600d5f600f5f8881526020019081526020015f206001015f9054906101000a900473ffffffffffffffffffffffffffffffffffffffff1673ffffffffffffffffffffffffffffffffffffffff1673ffffffffffffffffffffffffffffffffffffffff1681526020019081526020015f2082815481106131e2576131e16142a5565b5b905f5260205f200181905550600d5f600f5f8781526020019081526020015f206001015f9054906101000a900473ffffffffffffffffffffffffffffffffffffffff1673ffffffffffffffffffffffffffffffffffffffff1673ffffffffffffffffffffffffffffffffffffffff1681526020019081526020015f2080548061326e5761326d614332565b5b600190038181905f5260205f20015f90559055613299565b808061329190614386565b91505061301c565b5081600e5f600f5f8781526020019081526020015f206003015481526020019081526020015f2060070190816132cf9190614660565b505f600e5f600f5f8781526020019081526020015f206003015481526020019081526020015f206008015f6101000a81548160ff021916908315150217905550600f5f8481526020019081526020015f206002015f9054906101000a900473ffffffffffffffffffffffffffffffffffffffff16600e5f600f5f8781526020019081526020015f206003015481526020019081526020015f2060080160016101000a81548173ffffffffffffffffffffffffffffffffffffffff021916908373ffffffffffffffffffffffffffffffffffffffff160217905550505050565b5f819050919050565b6133c0816133ae565b82525050565b5f6020820190506133d95f8301846133b7565b92915050565b5f604051905090565b5f80fd5b5f80fd5b5f73ffffffffffffffffffffffffffffffffffffffff82169050919050565b5f613419826133f0565b9050919050565b6134298161340f565b8114613433575f80fd5b50565b5f8135905061344481613420565b92915050565b5f6020828403121561345f5761345e6133e8565b5b5f61346c84828501613436565b91505092915050565b5f8115159050919050565b61348981613475565b82525050565b5f6020820190506134a25f830184613480565b92915050565b5f81519050919050565b5f82825260208201905092915050565b5f819050602082019050919050565b6134da816133ae565b82525050565b5f6134eb83836134d1565b60208301905092915050565b5f602082019050919050565b5f61350d826134a8565b61351781856134b2565b9350613522836134c2565b805f5b8381101561355257815161353988826134e0565b9750613544836134f7565b925050600181019050613525565b5085935050505092915050565b5f6020820190508181035f8301526135778184613503565b905092915050565b6135888161340f565b82525050565b5f81519050919050565b5f82825260208201905092915050565b5f5b838110156135c55780820151818401526020810190506135aa565b5f8484015250505050565b5f601f19601f8301169050919050565b5f6135ea8261358e565b6135f48185613598565b93506136048185602086016135a8565b61360d816135d0565b840191505092915050565b5f60c08201905061362b5f8301896133b7565b613638602083018861357f565b818103604083015261364a81876135e0565b905061365960608301866133b7565b818103608083015261366b81856135e0565b905081810360a083015261367f81846135e0565b9050979650505050505050565b613695816133ae565b811461369f575f80fd5b50565b5f813590506136b08161368c565b92915050565b5f602082840312156136cb576136ca6133e8565b5b5f6136d8848285016136a2565b91505092915050565b5f610120820190506136f55f83018c61357f565b8181036020830152613707818b6135e0565b9050613716604083018a6133b7565b818103606083015261372881896135e0565b9050818103608083015261373c81886135e0565b905081810360a083015261375081876135e0565b905081810360c083015261376481866135e0565b905081810360e083015261377881856135e0565b9050613788610100830184613480565b9a9950505050505050505050565b5f6137a0826133f0565b9050919050565b6137b081613796565b82525050565b7f4e487b71000000000000000000000000000000000000000000000000000000005f52602160045260245ffd5b600581106137f4576137f36137b6565b5b50565b5f819050613804826137e3565b919050565b5f613813826137f7565b9050919050565b61382381613809565b82525050565b5f60c08201905061383c5f8301896133b7565b61384960208301886137a7565b61385660408301876137a7565b61386360608301866133b7565b613870608083018561381a565b61387d60a0830184613480565b979650505050505050565b5f81519050919050565b5f82825260208201905092915050565b5f819050602082019050919050565b6138ba8161340f565b82525050565b5f6138cb83836138b1565b60208301905092915050565b5f602082019050919050565b5f6138ed82613888565b6138f78185613892565b9350613902836138a2565b805f5b8381101561393257815161391988826138c0565b9750613924836138d7565b925050600181019050613905565b5085935050505092915050565b5f6020820190508181035f83015261395781846138e3565b905092915050565b5f80fd5b5f80fd5b7f4e487b71000000000000000000000000000000000000000000000000000000005f52604160045260245ffd5b61399d826135d0565b810181811067ffffffffffffffff821117156139bc576139bb613967565b5b80604052505050565b5f6139ce6133df565b90506139da8282613994565b919050565b5f67ffffffffffffffff8211156139f9576139f8613967565b5b613a02826135d0565b9050602081019050919050565b828183375f83830152505050565b5f613a2f613a2a846139df565b6139c5565b905082815260208101848484011115613a4b57613a4a613963565b5b613a56848285613a0f565b509392505050565b5f82601f830112613a7257613a7161395f565b5b8135613a82848260208601613a1d565b91505092915050565b5f805f805f60a08688031215613aa457613aa36133e8565b5b5f613ab188828901613436565b955050602086013567ffffffffffffffff811115613ad257613ad16133ec565b5b613ade88828901613a5e565b9450506040613aef888289016136a2565b935050606086013567ffffffffffffffff811115613b1057613b0f6133ec565b5b613b1c88828901613a5e565b925050608086013567ffffffffffffffff811115613b3d57613b3c6133ec565b5b613b4988828901613a5e565b9150509295509295909350565b5f805f805f805f60e0888a031215613b7157613b706133e8565b5b5f613b7e8a828b016136a2565b975050602088013567ffffffffffffffff811115613b9f57613b9e6133ec565b5b613bab8a828b01613a5e565b9650506040613bbc8a828b016136a2565b955050606088013567ffffffffffffffff811115613bdd57613bdc6133ec565b5b613be98a828b01613a5e565b9450506080613bfa8a828b016136a2565b93505060a088013567ffffffffffffffff811115613c1b57613c1a6133ec565b5b613c278a828b01613a5e565b92505060c088013567ffffffffffffffff811115613c4857613c476133ec565b5b613c548a828b01613a5e565b91505092959891949750929550565b5f61016082019050613c775f83018e6133b7565b613c84602083018d6133b7565b8181036040830152613c96818c6135e0565b9050613ca5606083018b6133b7565b8181036080830152613cb7818a6135e0565b9050613cc660a08301896133b7565b81810360c0830152613cd881886135e0565b905081810360e0830152613cec81876135e0565b9050613cfc610100830186613480565b613d0a6101208301856137a7565b613d18610140830184613480565b9c9b505050505050505050505050565b5f805f805f805f60e0888a031215613d4357613d426133e8565b5b5f88013567ffffffffffffffff811115613d6057613d5f6133ec565b5b613d6c8a828b01613a5e565b9750506020613d7d8a828b016136a2565b965050604088013567ffffffffffffffff811115613d9e57613d9d6133ec565b5b613daa8a828b01613a5e565b955050606088013567ffffffffffffffff811115613dcb57613dca6133ec565b5b613dd78a828b01613a5e565b945050608088013567ffffffffffffffff811115613df857613df76133ec565b5b613e048a828b01613a5e565b93505060a088013567ffffffffffffffff811115613e2557613e246133ec565b5b613e318a828b01613a5e565b92505060c088013567ffffffffffffffff811115613e5257613e516133ec565b5b613e5e8a828b01613a5e565b91505092959891949750929550565b5f8060408385031215613e8357613e826133e8565b5b5f613e90858286016136a2565b925050602083013567ffffffffffffffff811115613eb157613eb06133ec565b5b613ebd85828601613a5e565b9150509250929050565b7f4e487b71000000000000000000000000000000000000000000000000000000005f52602260045260245ffd5b5f6002820490506001821680613f0b57607f821691505b602082108103613f1e57613f1d613ec7565b5b50919050565b7f72657175657374732063616e206f6e6c79206265206d616e61676564206279725f8201527f6573706563746976652073656c6c657273000000000000000000000000000000602082015250565b5f613f7e603183613598565b9150613f8982613f24565b604082019050919050565b5f6020820190508181035f830152613fab81613f72565b9050919050565b7f546869732066756e6374696f6e206973207265737472696374656420746f20745f8201527f686520636f6e74726163742773206f776e657200000000000000000000000000602082015250565b5f61400c603383613598565b915061401782613fb2565b604082019050919050565b5f6020820190508181035f83015261403981614000565b9050919050565b7f546869732066756e6374696f6e206973207265737472696374656420746f204c5f8201527f616e6420496e73706563746f7273000000000000000000000000000000000000602082015250565b5f61409a602e83613598565b91506140a582614040565b604082019050919050565b5f6020820190508181035f8301526140c78161408e565b9050919050565b7f6d616b655061796d656e742066756e6374696f6e2072657374726963746564205f8201527f746f207265737065637469766520627579657273000000000000000000000000602082015250565b5f614128603483613598565b9150614133826140ce565b604082019050919050565b5f6020820190508181035f8301526141558161411c565b9050919050565b7f6d616b655061796d656e742066756e6374696f6e2072657374726963746564205f8201527f746f206f6e6c792073656c6c65722d6163636570746564207265717565737473602082015250565b5f6141b6604083613598565b91506141c18261415c565b604082019050919050565b5f6020820190508181035f8301526141e3816141aa565b9050919050565b7f4e487b71000000000000000000000000000000000000000000000000000000005f52600160045260245ffd5b7f4c616e6420496e73706563746f72206e6f7420666f756e6420666f722072656d5f8201527f6f76616c00000000000000000000000000000000000000000000000000000000602082015250565b5f614271602483613598565b915061427c82614217565b604082019050919050565b5f6020820190508181035f83015261429e81614265565b9050919050565b7f4e487b71000000000000000000000000000000000000000000000000000000005f52603260045260245ffd5b7f4e487b71000000000000000000000000000000000000000000000000000000005f52601160045260245ffd5b5f614309826133ae565b9150614314836133ae565b925082820390508181111561432c5761432b6142d2565b5b92915050565b7f4e487b71000000000000000000000000000000000000000000000000000000005f52603160045260245ffd5b5f614369826133ae565b91505f820361437b5761437a6142d2565b5b600182039050919050565b5f614390826133ae565b91507fffffffffffffffffffffffffffffffffffffffffffffffffffffffffffffffff82036143c2576143c16142d2565b5b600182019050919050565b7f6d616b654974666f7253656c6c2066756e6374696f6e207265737472696374655f8201527f6420746f206f6e6c792072657370656374697665206c616e64206f776e657273602082015250565b5f614427604083613598565b9150614432826143cd565b604082019050919050565b5f6020820190508181035f8301526144548161441b565b9050919050565b7f4c616e6420696e737020616c726561647920696e20746865206c6973740000005f82015250565b5f61448f601d83613598565b915061449a8261445b565b602082019050919050565b5f6020820190508181035f8301526144bc81614483565b9050919050565b5f819050815f5260205f209050919050565b5f6020601f8301049050919050565b5f82821b905092915050565b5f6008830261451f7fffffffffffffffffffffffffffffffffffffffffffffffffffffffffffffffff826144e4565b61452986836144e4565b95508019841693508086168417925050509392505050565b5f819050919050565b5f61456461455f61455a846133ae565b614541565b6133ae565b9050919050565b5f819050919050565b61457d8361454a565b6145916145898261456b565b8484546144f0565b825550505050565b5f90565b6145a5614599565b6145b0818484614574565b505050565b5b818110156145d3576145c85f8261459d565b6001810190506145b6565b5050565b601f821115614618576145e9816144c3565b6145f2846144d5565b81016020851015614601578190505b61461561460d856144d5565b8301826145b5565b50505b505050565b5f82821c905092915050565b5f6146385f198460080261461d565b1980831691505092915050565b5f6146508383614629565b9150826002028217905092915050565b6146698261358e565b67ffffffffffffffff81111561468257614681613967565b5b61468c8254613ef4565b6146978282856145d7565b5f60209050601f8311600181146146c8575f84156146b6578287015190505b6146c08582614645565b865550614727565b601f1984166146d6866144c3565b5f5b828110156146fd578489015182556001820191506020850194506020810190506146d8565b8683101561471a5784890151614716601f891682614629565b8355505b6001600288020188555050505b505050505050565b5f60a0820190506147425f83018861357f565b818103602083015261475481876135e0565b905061476360408301866133b7565b818103606083015261477581856135e0565b9050818103608083015261478981846135e0565b90509695505050505050565b7f546869732066756e6374696f6e206973207265737472696374656420746f20765f8201527f6572696669656420757365727300000000000000000000000000000000000000602082015250565b5f6147ef602d83613598565b91506147fa82614795565b604082019050919050565b5f6020820190508181035f83015261481c816147e3565b9050919050565b7f72657175657374666f724275792066756e6374696f6e207265737472696374655f8201527f6420746f207665726966696564206c616e647300000000000000000000000000602082015250565b5f61487d603383613598565b915061488882614823565b604082019050919050565b5f6020820190508181035f8301526148aa81614871565b9050919050565b7f416c7265616479206120726567697374657265642075736572000000000000005f82015250565b5f6148e5601983613598565b91506148f0826148b1565b602082019050919050565b5f6020820190508181035f830152614912816148d9565b9050919050565b7f5061796d656e742073686f756c6420626520646f6e65206265666f726520696e5f8201527f766f6b696e67207472616e736665724f776e6572736869702066756e6374696f60208201527f6e00000000000000000000000000000000000000000000000000000000000000604082015250565b5f614999604183613598565b91506149a482614919565b606082019050919050565b5f6020820190508181035f8301526149c68161498d565b905091905056fea2646970667358221220b97e480ad9637c213d306aabec41229e0a9d965b3cf050984df72caf8f57392d64736f6c63430008140033",
  "immutableReferences": {},
  "source": "// SPDX-License-Identifier: UNLICENSED\npragma solidity ^0.8.0;\n\ncontract Land {\n    address contractOwner;\n\n    constructor() {\n        contractOwner = msg.sender;\n    }\n\n    struct Landreg {\n        uint256 id;\n        uint256 area;\n        string landAddress;\n        uint256 landPrice;\n        string allLatitudeLongitude;\n        uint256 propertyPID;\n        string physicalSurveyNumber;\n        string document;\n        bool isforSell;\n        address payable ownerAddress;\n        bool landVerified;\n    }\n\n    struct User {\n        address id;\n        string name;\n        uint256 age;\n        string city;\n        string aadharNumber;\n        string panNumber;\n        string document;\n        string email;\n        bool userVerified;\n    }\n\n    struct LandInspector {\n        uint256 id;\n        address _addr;\n        string name;\n        uint256 age;\n        string designation;\n        string city;\n    }\n\n    struct LandRequest {\n        uint256 reqId;\n        address payable sellerId;\n        address payable buyerId;\n        uint256 landId;\n        reqStatus requestStatus;\n        bool isPaymentDone;\n    }\n    enum reqStatus {\n        requested,\n        accepted,\n        rejected,\n        paymentdone,\n        commpleted\n    }\n\n    uint256 inspectorsCount;\n    uint256 public userCount;\n    uint256 public landsCount;\n    uint256 public documentId;\n    uint256 requestCount;\n\n    mapping(address => LandInspector) public InspMap;\n    mapping(uint256 => address[]) allLiListMap;\n    mapping(address => bool) isRegInspMap;\n    mapping(address => User) public UserMap;\n    mapping(uint256 => address) AllUsersMap;\n    mapping(uint256 => address[]) allUsersListMap;\n    mapping(address => bool) isRegUserMap;\n    mapping(address => uint256[]) UserLandsMap;\n    mapping(uint256 => Landreg) public landsMap;\n    mapping(uint256 => LandRequest) public LandRequestMap;\n    mapping(address => uint256[]) ReceivedLandRequestMap;\n    mapping(address => uint256[]) SentLandRequestMap;\n    mapping(uint256 => uint256[]) allLandListMap;\n    mapping(uint256 => uint256[]) paymentDoneListMap;\n\n    //-----------------------------------------------Modifiers-----------------------------------------------\n    modifier OwnerCheck() {\n        require(\n            msg.sender == contractOwner,\n            \"This function is restricted to the contract's owner\"\n        );\n        _;\n    }\n    modifier LiVerifyCheck() {\n        require(\n            isLandInspector(msg.sender),\n            \"This function is restricted to Land Inspectors\"\n        );\n        _;\n    }\n    modifier userVerifyCheck() {\n        require(\n            isUserVerified(msg.sender),\n            \"This function is restricted to verified users\"\n        );\n        _;\n    }\n    modifier sellerIdCheck(uint256 _requestId) {\n        require(\n            LandRequestMap[_requestId].sellerId == msg.sender,\n            \"requests can only be managed byrespective sellers\"\n        );\n        _;\n    }\n\n    //-----------------------------------------------ContractOwner-----------------------------------------------\n\n    function isContractOwner(address _addr) public view returns (bool) {\n        if (_addr == contractOwner) return true;\n        else return false;\n    }\n\n    function changeContractOwner(address _addr) external OwnerCheck {\n        contractOwner = _addr;\n    }\n\n    //-----------------------------------------------LandInspector-----------------------------------------------\n    event LiAdd(\n        address indexed sender,\n        address recipient,\n        string name,\n        uint256 age,\n        string designation,\n        string city\n    );\n\n    function addLandInspector(\n        address _addr,\n        string memory _inspName,\n        uint256 _inspAge,\n        string memory _designation,\n        string memory _city\n    ) external OwnerCheck {\n        require(isRegInspMap[_addr] == false, \"Land insp already in the list\");\n        isRegInspMap[_addr] = true;\n        allLiListMap[1].push(_addr);\n        inspectorsCount++;\n        InspMap[_addr] = LandInspector(\n            inspectorsCount,\n            _addr,\n            _inspName,\n            _inspAge,\n            _designation,\n            _city\n        );\n        emit LiAdd(msg.sender, _addr, _inspName, _inspAge, _designation, _city);\n    }\n\n    function ReturnAllLandIncpectorList()\n        public\n        view\n        returns (address[] memory)\n    {\n        return allLiListMap[1];\n    }\n\n    function removeLandInspector(address _addr) external OwnerCheck {\n        require(isRegInspMap[_addr], \"Land Inspector not found for removal\");\n        isRegInspMap[_addr] = false;\n\n        uint256 len = allLiListMap[1].length;\n        for (uint256 i = 0; i < len; i++) {\n            if (allLiListMap[1][i] == _addr) {\n                allLiListMap[1][i] = allLiListMap[1][len - 1];\n                allLiListMap[1].pop();\n                inspectorsCount--;\n                break;\n            }\n        }\n    }\n\n    function isLandInspector(address _id) public view returns (bool) {\n        if (isRegInspMap[_id]) {\n            return true;\n        } else {\n            return false;\n        }\n    }\n\n    //-----------------------------------------------User-----------------------------------------------\n\n    function isUserRegistered(address _addr) public view returns (bool) {\n        if (isRegUserMap[_addr]) {\n            return true;\n        } else {\n            return false;\n        }\n    }\n\n    function registerUser(\n        string memory _userName,\n        uint256 _userAge,\n        string memory _city,\n        string memory _aadharNumber,\n        string memory _panNumber,\n        string memory _document,\n        string memory _email\n    ) external {\n        require(!isRegUserMap[msg.sender], \"Already a registered user\");\n\n        isRegUserMap[msg.sender] = true;\n        userCount++;\n        allUsersListMap[1].push(msg.sender);\n        AllUsersMap[userCount] = msg.sender;\n        UserMap[msg.sender] = User(\n            msg.sender,\n            _userName,\n            _userAge,\n            _city,\n            _aadharNumber,\n            _panNumber,\n            _document,\n            _email,\n            false\n        );\n    }\n\n    function verifyUser(address _userId) external LiVerifyCheck {\n        UserMap[_userId].userVerified = true;\n    }\n\n    function isUserVerified(address id) public view returns (bool) {\n        return UserMap[id].userVerified;\n    }\n\n    function ReturnAllUserList() public view returns (address[] memory) {\n        return allUsersListMap[1];\n    }\n\n    //-----------------------------------------------Land-----------------------------------------------\n    function addLand(\n        uint256 _area,\n        string memory _address,\n        uint256 _landPrice,\n        string memory _allLatiLongi,\n        uint256 _propertyPID,\n        string memory _surveyNum,\n        string memory _document\n    ) external userVerifyCheck {\n        landsCount++;\n        landsMap[landsCount] = Landreg(\n            landsCount,\n            _area,\n            _address,\n            _landPrice,\n            _allLatiLongi,\n            _propertyPID,\n            _surveyNum,\n            _document,\n            false,\n            payable(msg.sender),\n            false\n        );\n        UserLandsMap[msg.sender].push(landsCount);\n        allLandListMap[1].push(landsCount);\n    }\n\n    function ReturnAllLandList() public view returns (uint256[] memory) {\n        return allLandListMap[1];\n    }\n\n    function verifyLand(uint256 _id) external LiVerifyCheck {\n        landsMap[_id].landVerified = true;\n    }\n\n    function isLandVerified(uint256 id) public view returns (bool) {\n        return landsMap[id].landVerified;\n    }\n\n    function myAllLands(address id) public view returns (uint256[] memory) {\n        return UserLandsMap[id];\n    }\n\n    function makeItforSell(uint256 id) external {\n        require(\n            landsMap[id].ownerAddress == msg.sender,\n            \"makeItforSell function restricted to only respective land owners\"\n        );\n        landsMap[id].isforSell = true;\n    }\n\n    function requestforBuy(uint256 _landId) external userVerifyCheck {\n        require(\n            isLandVerified(_landId),\n            \"requestforBuy function restricted to verified lands\"\n        );\n        requestCount++;\n        LandRequestMap[requestCount] = LandRequest(\n            requestCount,\n            landsMap[_landId].ownerAddress,\n            payable(msg.sender),\n            _landId,\n            reqStatus.requested,\n            false\n        );\n        ReceivedLandRequestMap[landsMap[_landId].ownerAddress].push(\n            requestCount\n        );\n        SentLandRequestMap[msg.sender].push(requestCount);\n    }\n\n    function myReceivedLandRequests() public view returns (uint256[] memory) {\n        return ReceivedLandRequestMap[msg.sender];\n    }\n\n    function mySentLandRequests() public view returns (uint256[] memory) {\n        return SentLandRequestMap[msg.sender];\n    }\n\n    function acceptRequest(\n        uint256 _requestId\n    ) external sellerIdCheck(_requestId) {\n        LandRequestMap[_requestId].requestStatus = reqStatus.accepted;\n    }\n\n    function rejectRequest(\n        uint256 _requestId\n    ) external sellerIdCheck(_requestId) {\n        LandRequestMap[_requestId].requestStatus = reqStatus.rejected;\n    }\n\n    function requesteStatus(uint256 id) public view returns (bool) {\n        return LandRequestMap[id].isPaymentDone;\n    }\n\n    function landPrice(uint256 id) public view returns (uint256) {\n        return landsMap[id].landPrice;\n    }\n\n    function makePayment(uint256 _requestId) external payable {\n        require(\n            LandRequestMap[_requestId].buyerId == msg.sender,\n            \"makePayment function restricted to respective buyers\"\n        );\n        require(\n            LandRequestMap[_requestId].requestStatus == reqStatus.accepted,\n            \"makePayment function restricted to only seller-accepted requests\"\n        );\n        assert(\n            landsMap[LandRequestMap[_requestId].landId].ownerAddress.balance >=\n                msg.value\n        );\n        landsMap[LandRequestMap[_requestId].landId].ownerAddress.transfer(\n            msg.value\n        );\n        LandRequestMap[_requestId].requestStatus = reqStatus.paymentdone;\n        LandRequestMap[_requestId].isPaymentDone = true;\n        paymentDoneListMap[1].push(_requestId);\n    }\n\n    function returnPaymentDoneList() public view returns (uint256[] memory) {\n        return paymentDoneListMap[1];\n    }\n\n    function transferOwnership(\n        uint256 _requestId,\n        string memory documentUrl\n    ) external LiVerifyCheck {\n        require(\n            LandRequestMap[_requestId].isPaymentDone == true,\n            \"Payment should be done before invoking transferOwnership function\"\n        );\n        documentId++;\n        LandRequestMap[_requestId].requestStatus = reqStatus.commpleted;\n        UserLandsMap[LandRequestMap[_requestId].buyerId].push(\n            LandRequestMap[_requestId].landId\n        );\n\n        uint256 len = UserLandsMap[LandRequestMap[_requestId].sellerId].length;\n        for (uint256 i = 0; i < len; i++) {\n            if (\n                UserLandsMap[LandRequestMap[_requestId].sellerId][i] ==\n                LandRequestMap[_requestId].landId\n            ) {\n                UserLandsMap[LandRequestMap[_requestId].sellerId][\n                    i\n                ] = UserLandsMap[LandRequestMap[_requestId].sellerId][len - 1];\n                UserLandsMap[LandRequestMap[_requestId].sellerId].pop();\n                break;\n            }\n        }\n        landsMap[LandRequestMap[_requestId].landId].document = documentUrl;\n        landsMap[LandRequestMap[_requestId].landId].isforSell = false;\n        landsMap[LandRequestMap[_requestId].landId]\n            .ownerAddress = LandRequestMap[_requestId].buyerId;\n    }\n}\n",
  "sourcePath": "/mnt/nvme0n1p3/LandregRelated/Land-Registry-Using-Blockchain/contracts/landContract.sol",
  "compiler": {
    "name": "solc",
    "version": "0.8.20+commit.a1b79de6.Emscripten.clang"
  },
  "schemaVersion": "3.4.13",
  "updatedAt": "2023-06-02T14:29:27.191Z",
  "networkType": "ethereum",
  "devdoc": {
    "kind": "dev",
    "methods": {},
    "version": 1
  },
  "userdoc": {
    "kind": "user",
    "methods": {},
    "version": 1
  }
}